:020000040800F2
:2000000000280020F10000083101000831010008310100083101000831010008000000007D
:200020000000000000000000000000003101000831010008000000003101000831010008D8
:200040003101000831010008310100083101000831010008310100083101000831010008D0
:200060003101000831010008310100083101000831010008310100083101000831010008B0
:2000800031010008310100083101000831010008E1040008310100083101000831010008DD
:2000A000310100083101000831010008310100083101000831010008310100083101000870
:2000C000310100083101000831010008310100083101000831010008310100083101000850
:2000E0003101000831010008310100085FF808F1002103E0094B5B58435004310848094B8B
:2001000042189A42F6D3084A02E0002342F8043B064B9A42F9D300F03DFA70471419000804
:2001200000000020C8020020C80200200C030020FEE7704703288CBF022000207047000091
:20014000034B1B689B7A13B10522024B1A607047040300200C0300200422014B1A60704757
:200160000C03002010B5002400F08EFC204B214A1B6812689C72D2791F495A721F4A0C60B8
:200180001368204623F4EC4323F0700343F400739BB21360136823F4E04323F040039BB2F0
:2001A00083F0100313600A68154B92B2134440225B001A6080220B689BB203F1005303F501
:2001C00040535B001A6000F04BFE0E4B20461B6893F8301000F09AFE204600F024FE01224E
:2001E000094B2046BDE810401A6001F027BB00BF0403002070020020505C0040005C004003
:2002000004300020DC0200200C030020014901F027B900BF78020020014901F021B900BF15
:2002200070020020054B1B689B78072B04D8044901EBC30101F014B900207047040300207F
:2002400088020020014901F00BB900BF8002002038B5174D04462A68127802F07F02212A1F
:2002600001D002201CE000F0A7FC0028F9D0601E0428F6D801A353F820F000BFA302000828
:20028000A7020008AB0200086302000891020008084B00242A682046936154829847204672
:2002A00038BD054BF5E7054BF3E7054BF1E700BF04030020CD0A0008FD0A0008250B0008BF
:2002C000E50A000808B5074B1B681B7803F07F03212B01D0022008BD00F06EFC0028F9D03E
:2002E0000020F8E704030020704770477047704770477047704770477047000037B5194C18
:200300000C20256800F074FB054045F4803500220C211548256000F0A9F900230193019B7C
:20032000B3F5007F1BD30C20256800F061FB054045F48025256000F06DFB0C4BC2B2186060
:200340000B4BC0F3072083F8292083F82A00094B5A71987103B0BDE8304000F0B1BE019B19
:200360000133DBE70408014000080140C802002094000020D3000020044A13689BB243F017
:200380000C0313600322024B1A607047405C00400C0300204FF6FB72034B19680A401A60E8
:2003A0004FF43F421A607047405C004010B51D4C072818BF20702378052B06D8DFE803F045
:2003C00003070B101823FFF7E5FF062306E0FFF7E1FF042302E0022363700323237006E05E
:2003E0006378013BDBB263706378002BF1D010BD0D4A13689BB243F010031360052323705F
:200400000A236370F3E76378013BDBB263706378002BECD14FF6EF73034A11680B4013609D
:20042000D3E700BFCE020020405C004001220020054B06491A60064A186010604FF4E0526E
:200440000A801A60704700BF405C004008030020445C004001220020034B1A60034A106073
:2004600003221A60704700BF405C0040445C0040FFF7F0BF07B5044B01A8019300F0FCF9D9
:2004800003B05DF804FB00BF1400000110B5002400F0CCFA084B1B689C72FFF7C7FF074BF0
:2004A000074A1C604FF43F431380064A1360FFF7E1FF054B1C6010BD04030020445C0040DE
:2004C00008030020405C00400C030020142307B501A8019300F0D0F903B05DF804FB0000F6
:2004E00070B5274D274C2B68274E9BB22380238832881340590505D54FF6FF332B60234B98
:200500005B689847228833881A40920444BF4DF6FF722A6022881340DB0405D54EF6FF7337
:2005200000202B60FFF742FF238832881340180504D5FFF721FF4FF2FF732B602388328872
:200540001340990507D54FF6FF5311492B600B780133DBB20B7023881A40D20505D54FF698
:20056000FF6307202B60FFF721FF2388328813401B0403D5BDE8704000F0E8BC70BD00BFCD
:20058000445C0040CC020020080300200000002010030020F7B500F0A3F800F0C5F800F03B
:2005A000F3F8FFF7ABFE00F009F900F041F90128044614D0022821D00023294800930522D5
:2005C0004FF4A0230D2100F063F8264800F004F9F0B100F055F8041E18BF012408E000233A
:2005E000052200930D214FF4A0231D4800F050F800252E461A4F052D11D984B91A4800F0C3
:20060000EBF8D8B1184800F07FF9002003B0F0BD154800F0E1F80028DBD10124E8E74FF4F5
:20062000801301220D213846009600F031F800F0DDFB08B100F0E0FB0135DCE7094800F023
:20064000CBF808B10748DEE74FF4A02305220D210090034800F01CF800F06AF9D5E700BF02
:20066000001001400050000800200008B2FA82F2012352098B40120103FA02F20261704721
:20068000024B1868C0F38000704700BF081401402DE9F8439DF820901446C9F10105EDB238
:2006A00006460F4698462A46013CE4B2FFF7DEFFFF2C10D1BDE8F88300BF013B002BFBD187
:2006C0004A4639463046FFF7D1FF43462BB92A4639463046E8E74346F0E700BF013BF5E7F7
:2006E0000D4B0E491A6842F001021A6008680C4A02400A601A6822F0847222F480321A60DC
:200700001A6822F480221A6000220B6823F4FE030B60044B1A6070470010024004100240E5
:200720000000FFF808100240154B1A6842F001121A601A689003FCD51221124A1160A2F649
:20074000FC72116841F4E81141F480611160196841F080711960196811F0407FFBD011685C
:2007600041F00201116011680907FCD59A6942F4FE729A61DA6942F40002DA61704700BFAA
:200780000010024000200240094A136823F4706343F4806313604FF48022064B1A60064A60
:2007A000136823F4700343F480131360704700BF001401401014014004100140054B1A68A0
:2007C000D1075EBF1A6842F001021A601A689207FCD570470010024003680348184000F1FF
:2007E00060435842584170470000FE2F034A43681060026882F30888184700BF08ED00E075
:20080000084AD36943F0C053D361074B1A6842F480721A60054A10851A6822F480721A6072
:20082000704700BF0010024000700040006C004044F24C210E4B10B5DA6942F0C052DA6111
:200840000C4A128D92B28A4219460DD044F24D239A420BD102240020FFF7D2FFCB6923F0A5
:20086000C053CB61204610BD0124F4E70024F9E700100240006C0040184B30B5DA680F2447
:20088000D243C2F30222C2F1040124FA02F2FF24437803FA01F18378134002780B4302F0CB
:2008A000FC0101F1604101F5614102F00300D1F80053C0001B0183406B4004FA00F0034084
:2008C0006B40C1F800330123510902F01F0203FA02F2034B43F8212030BD00BF00ED00E0BC
:2008E00000E100E04FF0FF32064BC3F88020C3F88420C3F88021C3F88421042243F8F02C83
:20090000704700BF00E100E0802210B50446074B1A60FFF7DBFDFFF7E5FFFFF7A9FDFFF7E9
:20092000DFFE2046BDE81040FFF760BF10200240024B034ADA6000BFFDE700BF00ED00E0F5
:200940000400FA050A4B10B51A6802221A60094A11461468E407FCD4074A106042221A60DA
:200960000A6812F00102FBD101201A6010BD00BF102002400C2002401420024073B501246A
:200980008BB200930B0C01930E4B1A681C600E4C25462668F607FCD4019CA4B244802C681A
:2009A000E607FCD4009CA4B204802C68E407FCD422F001021A600068431A5842584102B07C
:2009C00070BD00BF102002400C2002408022014B1A60704710200240034B044A1A6002F1B1
:2009E00088321A60704700BF04200240230167450F230728C8BF0838800003FA00F0C0437F
:200A000070470000024B188800F5003080027047E0F7FF1F044B1B88802B8CBF4FF4006054
:200A20004FF48060704700BFE0F7FF1F002302210C4A137053709370D370117153710A4A66
:200A40000A4913600A4A13800A4A11600A4A01F5884111600321094A1370094A1170094A7F
:200A600013707047110300201C0B0020000C0020180B0020C0020020C4020020200B00203F
:200A8000D002002017030020002210B50D4B0E4C197922600129C8B208D1022119711A70C9
:200AA000FFF720FFBDE81040FFF7E4BC10F0FD0F06D0022119711A70BDE81040FFF738BF9B
:200AC00010BD00BF110300201C0B002020B90122024B1B681A8270470148704704030020C9
:200AE0001503002020B90622024B1B681A827047014870470403002011030020064B1A686C
:200B0000538A28B9D188CB1A1382044B1980704703481844704700BF04030020180B00201E
:200B200018030020074B19684A8A20B9064B1B889B1A0B827047054B1868054B1B6818440E
:200B40001044704704030020180B00201C0B0020C00200202DE9F041134B144D1B782C68CA
:200B6000022B04F100640CBF04F5A04404F500542046FFF7E7FE0026DFF838800C4F3B88E6
:200B80009BB2B34208DC3B882A689BB213442B6000233B80BDE8F081A01958F8041BFFF799
:200BA000EDFE0436EBE700BF200B00201C0B0020180B002018030020012000227F49F8B5B7
:200BC0007F4C087025792270022DEBB264D108707C490968487801282FD1C888002800F0A2
:200BE000D0807948097B026003220129227105D0022918D00A23237122700FE07349744A78
:200C00001160744A1370FFF7D9FDFFF7E5FE7248FFF798FE44F24D20FFF7F2FD2078B0FA6D
:200C200080F04009F8BD6B4B1A70694B6A4A1A60FFF7C4FDFFF7D0FEECE7022823D109238C
:200C4000CA882371654B66481A801A8892B202801B884A889BB253435B4A13600B7B012B2C
:200C600006D0022B0CD00A23237103232370D5E7574B564A1A60FFF7C5FE5A4B1860CDE719
:200C8000534B554AF6E70628B5D0032801D12371C4E7052831D1FAE7032B0BD1494A126824
:200CA0005278032A04D105232371FFF753FFB5E7052AEFE7042B08D14B490878022801BFBD
:200CC000032362700B700523E1E7052B19D13D4B1A685378012B08D1D3880BB10323D6E7C3
:200CE00006232371FFF772FE98E7062B01D10223CDE7032BFBD0052BF9D00A2323710F2391
:200D0000B4E7062B08D12F4909684978032901D1082370E70529BDE7072BF9D0082BB6D07E
:200D2000092B39D1274B1A685378022B2DD1D18839B32A4852880388234D9BB25343244EAA
:200D40002B603368274FD5F800E00288734492B2D7F800C013446345214A04D803889BB218
:200D60001380092393E73B6830682D6828441B1A9BB2138013889BB29942B8D800231380E0
:200D8000B5E70A232371092370E7062BAFD0032BE7D0052BB1D1E4E70A2BAED1094B1B68D6
:200DA0005B78032B01D10A2371E7052BFBD0042BA3D102232371002358E700BF1703002029
:200DC00011030020040300201C0B002000500008C0020020200B0020002000081A0B00207F
:200DE000180B0020C4020020D0020020014B1878704700BF1703002000BFFDE7800000F138
:200E0000804000F5B8400368CA0623F4E04323F040039BB248BF83F010038A0648BF83F076
:200E2000200303607047800000F1804000F5B840036823F4804323F070039BB283F4405335
:200E400003607047800000F1804000F5B840036823F4E24323F070031B041B0C03607047CD
:200E6000FFF7F0BF800000F1804000F5B84003685B0409D5036823F4E04323F070031B04BD
:200E80001B0C43F4804303607047800000F1804000F5B84003685B0609D5036823F4E043AA
:200EA00023F070031B041B0C43F0400303607047064B1B689BB203EBC00000F1005000F5D1
:200EC00040504000006880B2704700BF505C0040054B1B689BB203EBC000044B03445B0087
:200EE000186880B2704700BF505C004004300020044B1B689BB203EBC000034B03445B00CD
:200F000019607047505C0040023000200D4B0E4A1B683E299BB203EBC00002444FEA42020B
:200F20000AD94B09C80604BF03F1FF339BB29B0243F40043136070474B08C90748BF0133D7
:200F40009B02F7E7505C0040063000202DE9F843DFF86481DFF86491D8F800304F4A99B217
:200F60001B04118052D547F6FF73C8F80030138803F00F0389F80030002B63D1484C494E20
:200F80002368494D03F4405333802368474F03F030032B8023683B409BB283F40053236061
:200FA000236823F4E04323F040039BB283F020032360138813F0100F236829D123F4E14333
:200FC00023F070031B041B0C236000F053FC236832883B409BB2D70448BF83F480539604B0
:200FE0002F4A48BF83F40053136013682A8823F4E04323F040039BB2D40648BF83F01003C3
:201000009006274A48BF83F020031360BDE8F883190601D52368D1E71A0508D5236823F0C7
:2010200070031B051B0D236000F048FACFE71B0492D5236823F070031B051B0D236000F038
:201040009DFBC4E79A0002F1804202F5B842146821040AD51168013B21F070010905090D32
:201060001160134A52F82330984722067FF574AF99F80020930003F1804303F5B8431968F8
:20108000013A21F4E14121F070010904090C1960084B53F8223098475EE700BFCC02002000
:2010A000005C0040D2020020D40200208FBFFFFF780000205C000020445C0040E002002068
:2010C000064B074A0749136002221A72064B074A1360074A1B681160184700BFE40200207D
:2010E000040300203800002000000020DC0200200003002010B5064C18B9012223681A82FE
:2011000010BD044B1B681B68984720680A30F7E7040300200003002010B5064C18B90122D9
:2011200023681A8210BD044B1B689B68984720680C30F7E704030020000300201F4B10B5EC
:201140001968034600201BB9022218460A8210BD1B4C20800B78224613F07F0312D1497AD9
:201160008C0644BF02231370137848064CBF23F0010343F001031370124B1B681B6998473A
:201180000F48E4E7012B17D0022BE0D1097901F00F039B0003F1804303F5B84309061B68E0
:2011A00005D503F03003102BE6D10123E3E703F44053B3F5805FF7E72046C8E70403002024
:2011C0000A030020000300202DE9F843234FDFF8A0803D682C8AD4B92E7A042E17D12049F2
:2011E0000B78012B0ED11F4B1A681F4B92B213445B001C6030230C70A8F800303B681E72C7
:20120000BDE8F88310230726A8F80030F6E7AA8AAB69944294BF04260226944228BF1446C7
:201220002046984781460020FFF742FE22460146484600F04DFB21460020FFF759FE2B8A4E
:201240006A8A1B1B2B82302314444FF44052A8F80030064B6C821A80D0E700BF04030020F1
:20126000210B0020505C004002300020D2020020D402002010B50A4B0A491B6849789A7837
:2012800091420AD3DC7844B9998831B99A72064B1B685B689847204610BD0224FBE700BFC6
:2012A00004030020340000200003002038B50E4A0E4D12682B6892699978187990472B68DC
:2012C0009A7A7AB170B95A7962B9DC7854B9084B1B68DB6898472B681A79DA729A781A734E
:2012E000204638BD0224FBE7DC020020040300200003002070B52D4B1D682B7813F07F03F9
:2013000005D16A7A22F020026A72184670BD022B49D16A88002AF8D16A79002AF5D12979D7
:20132000234E21F08000840004F1804404F5B8442268367849B20029B4BF02F0300202F490
:2013400040528642E1D9002ADFD0AA7A002ADCD00029236811DA03F03003102B07D1C4B258
:201360002046FFF792FD30212046FFF747FD114B1B685B6998470023C7E703F44053B3F50C
:20138000805FF4D10C4D58B90C4B93F83010FFF7BDFD23682B409BB283F440532360E6E7D0
:2013A000FFF760FDF5E70223AFE700BF0403002034000020000300208FBFFFFF000000207A
:2013C00038B51B4B1B4D18682D78017921F08004A30003F1804303F5B8431A6849B200292B
:2013E000B4BF02F0300202F44052A5421DD94488DCB9D2B1827AC2B11A680029B5BF22F469
:20140000E04222F4804222F0400222F07002B5BF92B292B282F0100282F480521A60064B67
:201420001B689B699847002038BD0220FCE700BF04030020340000200003002008B5064BC1
:201440001A68537A43F020035372044B1B68DB699847002008BD00BF04030020000300203F
:20146000054B10B51C68628A18B98B889B1A238210BD08681044FBE70403002008B50B4BFC
:20148000002093F83010FFF741FD094B1B68187A082806D14FF48052064B1A801022064B3A
:2014A0001A80A0F109035842584108BD0000002004030020D2020020D402002073B5974DC0
:2014C000974B2A68974C92B213445B001A682368197A09290FD092B2520002F1804202F5CC
:2014E000C042117819705178597091885980118999809289DA8001221A72DA885E78002A1B
:2015000064D11A7812F07F024DD1092E03D1FFF7B1FE40BB16E0052E20D193F90220002AC6
:2015200007DA08232268137202B0BDE87040FFF7A5BFDA78002AF4D19A88002AF1D19B7ACB
:20154000002BEED12A68784B92B2134400225B001A603022754B1A800623E3E7032E14D105
:201560009A78012A08D0724B30461B685B699847032828D10923D5E79A88002AF3D15B7A0C
:201580009A06F0D5FFF75AFFC3E7012EEBD19A78012AE8D19A88002AE5D15B7A9B06E2D5DD
:2015A000FFF7A8FEB5E7012A04D10B2EDBD1FFF77DFEAEE7022AD6D1012EF1D0032ED2D171
:2015C000FFF7FEFEA5E70028BCD0AAE7062E17D11A7855065ED1DB78554A012B126803D1A4
:2015E000D369002B56D01EE0022B01D1136AF8E7032B01D1536AF4E7212B4BD1936AF0E731
:20160000002E54D15988002944D15A6822F0FF02B2F5003F3ED11A7812F07F0215D19B8870
:20162000002B37D1434B0025226828465582936198474FF6FF7123681A8A8A4234D0022D3F
:2016400001D0002A56D108222FE0012A0AD1384A1879126892699047E0B923689B7A002B66
:20166000E0D117E0022A15D11A7902F00F018B00100603F18043304803F5B8431B6800785D
:201680004CBF03F0300303F44053884202D912F0700FE4D0264B22681B6850781B6998470C
:2016A00003280546C5D1236809221A723CE7082E04D11B785B06EDD1204BB4E70A2EE9D104
:2016C0001A7802F07F02012AE4D19A7A002AE1D059880029DED15A6822F0FF02B2F5803F42
:2016E000D8D1134A18791268926990470028D1D1134B98E793F90010002934DAD9880C48D8
:2017000001910068019D90F83040AA42204619D9019A1A829882FFF757FD05E7505C004082
:20172000043000200403002002300020D4020020DC0200203D11000834000020F510000831
:20174000191100088A42E5D2A24203D20021094A1170DFE7B2FBF4F104FB1122002AD9D1C8
:201760000121044AF4E703221A724FF44052024B1A80D9E6210B0020D2020020F8B5294E8E
:201780003468237A032B01D0052B43D1A369B3B1258A0DB3A28A954228BF1546284698475C
:2017A000238A07465B1B2382638A00202B446382FFF78EFB2A460146384600F098F8238AD2
:2017C00053B100214FF44052174B08461A80FFF78FFB3022154B1A80218AA38A32688B42BA
:2017E00008D803231372137A32681372BDE8F840FFF744BE09B10523F4E7062313720C4B1B
:2018000018680C4B80B203445B0019603021074B1980E8E7072B03D1074B1B68DB6898479C
:201820000823E1E704030020D2020020D4020020505C004002300020DC02002030B5002261
:2018400048F68F75094B1C78A24204D3084B40F08000186030BD930003F1804303F5B843FE
:2018600019682940114319600132EDE7340000204C5C004010B5134C23681A7A022A01D02E
:20188000042A09D1FFF7A0FC23681B7A22681372BDE81040FFF7F2BD062A10D15A78052AD3
:2018A00009D11A78520606D19878FFF7C7FF064B1B681B6A9847054B1B689B6898470823A9
:2018C000E4E700BF0403002000030020DC02002001F10051013201F540515210490002B9D3
:2018E000704730F8023B013A21F8043BF7E7002310B501F10051013201F5405152104900CB
:201900009A4200D110BD51F8234020F813400133F6E700008D0400086501000833010008E2
:20192000ED02000851020008C5020008350100080D02000819020008250200084502000890
:20194000000000004000000001010000EF02000841010008F1020008F3020008F50200080B
:20196000F7020008F9020008E902000859010008EB020008EB020008EB020008EB0200083A
:20198000EB020008EB020008EB020008EB020008EB020008EB020008EB020008EB0200089F
:2019A000EB020008EB02000809022D0001010080320904000000FE0102040904000100FE33
:2019C0000102050904000200FE010206092103FF00000810011201000100000040AF1E0380
:2019E00000010201020301092103FF00000810018003530054004D003300320064007500E3
:201A000069006E006F00200062006F006F0074006C006F006100640065007200200076009F
:201A200031002E003000200020004500520052004F0052002E002000550070006C006F005F
:201A400061006400200074006F002000520041004D0020006E006F00740020007300750045
:201A6000700070006F0072007400650064002E006C03530054004D00330032006400750099
:201A800069006E006F00200062006F006F0074006C006F006100640065007200200076001F
:201AA00031002E00300020002000550070006C006F0061006400200074006F002000460089
:201AC0006C0061007300680020003000780038003000300035003000300030006C03530077
:201AE00054004D00330032006400750069006E006F00200062006F006F0074006C006F0012
:201B000061006400650072002000760031002E00300020002000550070006C006F006100C3
:201B20006400200074006F00200046006C00610073006800200030007800380030003000D0
:201B400032003000300030000403090414034D00610070006C0065002000300030003300F6
:201B600010034C004C004D00200030003000330012034C006500610066004C00610062001E
:201B800073000000940000202D000000C100002012000000D30000200900000034020020AC
:201BA000040000005C0200201200000038020020140000004C02002010000000DC000020A9
:1C1BC000800000005C0100206C000000C80100206C000000000C002000500020AF
:00000001FF
