:020000040800F2
:2000000000280020F10000083101000831010008310100083101000831010008000000007D
:200020000000000000000000000000003101000831010008000000003101000831010008D8
:200040003101000831010008310100083101000831010008310100083101000831010008D0
:200060003101000831010008310100083101000831010008310100083101000831010008B0
:2000800031010008310100083101000831010008E1040008310100083101000831010008DD
:2000A000310100083101000831010008310100083101000831010008310100083101000870
:2000C000310100083101000831010008310100083101000831010008310100083101000850
:2000E0003101000831010008310100085FF808F1002103E0094B5B58435004310848094B8B
:2001000042189A42F6D3084A02E0002342F8043B064B9A42F9D300F03DFA70471419000804
:2001200000000020C8020020C80200200C030020FEE7704703288CBF022000207047000091
:20014000034B1B689B7A13B10522024B1A607047040300200C0300200422014B1A60704757
:200160000C03002010B5002400F08EFC204B214A1B6812689C72D2791F495A721F4A0C60B8
:200180001368204623F4EC4323F0700343F400739BB21360136823F4E04323F040039BB2F0
:2001A00083F0100313600A68154B92B2134440225B001A6080220B689BB203F1005303F501
:2001C00040535B001A6000F04BFE0E4B20461B6893F8301000F09AFE204600F024FE01224E
:2001E000094B2046BDE810401A6001F027BB00BF0403002070020020505C0040005C004003
:2002000004300020DC0200200C030020014901F027B900BF78020020014901F021B900BF15
:2002200070020020054B1B689B78072B04D8044901EBC30101F014B900207047040300207F
:2002400088020020014901F00BB900BF8002002038B5174D04462A68127802F07F02212A1F
:2002600001D002201CE000F0A7FC0028F9D0601E0428F6D801A353F820F000BFA302000828
:20028000A7020008AB0200086302000891020008084B00242A682046936154829847204672
:2002A00038BD054BF5E7054BF3E7054BF1E700BF04030020CD0A0008FD0A0008250B0008BF
:2002C000E50A000808B5074B1B681B7803F07F03212B01D0022008BD00F06EFC0028F9D03E
:2002E0000020F8E704030020704770477047704770477047704770477047000037B5194C18
:200300000C20256800F074FB054045F4803500220C211548256000F0A9F900230193019B7C
:20032000B3F5007F1BD30C20256800F061FB054045F48025256000F06DFB0C4BC2B2186060
:200340000B4BC0F3072083F8292083F82A00094B5A71987103B0BDE8304000F0B1BE019B19
:200360000133DBE70408014000080140C802002094000020D3000020044A13689BB243F017
:200380000C0313600322024B1A607047405C00400C0300204FF6FB72034B19680A401A60E8
:2003A0004FF43F421A607047405C004010B51D4C072818BF20702378052B06D8DFE803F045
:2003C00003070B101823FFF7E5FF062306E0FFF7E1FF042302E0022363700323237006E05E
:2003E0006378013BDBB263706378002BF1D010BD0D4A13689BB243F010031360052323705F
:200400000A236370F3E76378013BDBB263706378002BECD14FF6EF73034A11680B4013609D
:20042000D3E700BFCE020020405C004001220020054B06491A60064A186010604FF4E0526E
:200440000A801A60704700BF405C004008030020445C004001220020034B1A60034A106073
:2004600003221A60704700BF405C0040445C0040FFF7F0BF07B5044B01A8019300F0FCF9D9
:2004800003B05DF804FB00BF1400000110B5002400F0CCFA084B1B689C72FFF7C7FF074BF0
:2004A000074A1C604FF43F431380064A1360FFF7E1FF054B1C6010BD04030020445C0040DE
:2004C00008030020405C00400C030020142307B501A8019300F0D0F903B05DF804FB0000F6
:2004E00070B5274D274C2B68274E9BB22380238832881340590505D54FF6FF332B60234B98
:200500005B689847228833881A40920444BF4DF6FF722A6022881340DB0405D54EF6FF7337
:2005200000202B60FFF742FF238832881340180504D5FFF721FF4FF2FF732B602388328872
:200540001340990507D54FF6FF5311492B600B780133DBB20B7023881A40D20505D54FF698
:20056000FF6307202B60FFF721FF2388328813401B0403D5BDE8704000F0E8BC70BD00BFCD
:20058000445C0040CC020020080300200000002010030020F7B500F0A3F800F0C5F800F03B
:2005A000F3F8FFF7ABFE00F009F900F041F90128044614D0022821D00023294800930522D5
:2005C0004FF4A0230D2100F063F8264800F004F9F0B100F055F8041E18BF012408E000233A
:2005E000052200930D214FF4A0231D4800F050F800252E461A4F052D11D984B91A4800F0C3
:20060000EBF8D8B1184800F07FF9002003B0F0BD154800F0E1F80028DBD10124E8E74FF4F5
:20062000801301220D213846009600F031F800F0DDFB08B100F0E0FB0135DCE7094800F023
:20064000CBF808B10748DEE74FF4A02305220D210090034800F01CF800F06AF9D5E700BF02
:20066000001001400050000800200008B2FA82F2012352098B40120103FA02F20261704721
:20068000024B1868C0F38000704700BF081401402DE9F8439DF820901446C9F10105EDB238
:2006A00006460F4698462A46013CE4B2FFF7DEFFFF2C10D1BDE8F88300BF013B002BFBD187
:2006C0004A4639463046FFF7D1FF43462BB92A4639463046E8E74346F0E700BF013BF5E7F7
:2006E0000D4B0E491A6842F001021A6008680C4A02400A601A6822F0847222F480321A60DC
:200700001A6822F480221A6000220B6823F4FE030B60044B1A6070470010024004100240E5
:200720000000FFF808100240154B1A6842F001121A601A689003FCD51221124A1160A2F649
:20074000FC72116841F4E81141F480611160196841F080711960196811F0407FFBD011685C
:2007600041F00201116011680907FCD59A6942F4FE729A61DA6942F40002DA61704700BFAA
:200780000010024000200240094A136823F4706343F4806313604FF48022064B1A60064A60
:2007A000136823F4700343F480131360704700BF001401401014014004100140054B1A68A0
:2007C000D1075EBF1A6842F001021A601A689207FCD570470010024003680348184000F1FF
:2007E00060435842584170470000FE2F034A43681060026882F30888184700BF08ED00E075
:20080000084AD36943F0C053D361074B1A6842F480721A60054A10851A6822F480721A6072
:20082000704700BF0010024000700040006C004044F24C210E4B10B5DA6942F0C052DA6111
:200840000C4A128D92B28A4219460DD044F24D239A420BD102240020FFF7D2FFCB6923F0A5
:20086000C053CB61204610BD0124F4E70024F9E700100240006C0040184B30B5DA680F2447
:20088000D243C2F30222C2F1040124FA02F2FF24437803FA01F18378134002780B4302F0CB
:2008A000FC0101F1604101F5614102F00300D1F80053C0001B0183406B4004FA00F0034084
:2008C0006B40C1F800330123510902F01F0203FA02F2034B43F8212030BD00BF00ED00E0BC
:2008E00000E100E04FF0FF32064BC3F88020C3F88420C3F88021C3F88421042243F8F02C83
:20090000704700BF00E100E0802210B50446074B1A60FFF7DBFDFFF7E5FFFFF7A9FDFFF7E9
:20092000DFFE2046BDE81040FFF760BF10200240024B034ADA6000BFFDE700BF00ED00E0F5
:200940000400FA050A4B10B51A6802221A60094A11461468E407FCD4074A106042221A60DA
:200960000A6812F00102FBD101201A6010BD00BF102002400C2002401420024073B501246A
:200980008BB200930B0C01930E4B1A681C600E4C25462668F607FCD4019CA4B244802C681A
:2009A000E607FCD4009CA4B204802C68E407FCD422F001021A600068431A5842584102B07C
:2009C00070BD00BF102002400C2002408022014B1A60704710200240034B044A1A6002F1B1
:2009E00088321A60704700BF04200240230167450F230728C8BF0838800003FA00F0C0437F
:200A000070470000024B188800F5003080027047E0F7FF1F044B1B88802B8CBF4FF4006054
:200A20004FF48060704700BFE0F7FF1F002302210C4A137053709370D370117153710A4A66
:200A40000A4913600A4A13800A4A11600A4A01F5884111600321094A1370094A1170094A7F
:200A600013707047110300201C0B0020000C0020180B0020C0020020C4020020200B00203F
:200A8000D002002017030020002210B50D4B0E4C197922600129C8B208D1022119711A70C9
:200AA000FFF720FFBDE81040FFF7E4BC10F0FD0F06D0022119711A70BDE81040FFF738BF9B
:200AC00010BD00BF110300201C0B002020B90122024B1B681A8270470148704704030020C9
:200AE0001503002020B90622024B1B681A827047014870470403002011030020064B1A686C
:200B0000538A28B9D188CB1A1382044B1980704703481844704700BF04030020180B00201E
:200B200018030020074B19684A8A20B9064B1B889B1A0B827047054B1868054B1B6818440E
:200B40001044704704030020180B00201C0B0020C00200202DE9F041134B144D1B782C68CA
:200B6000022B04F100640CBF04F5A04404F500542046FFF7E7FE0026DFF838800C4F3B88E6
:200B80009BB2B34208DC3B882A689BB213442B6000233B80BDE8F081A01958F8041BFFF799
:200BA000EDFE0436EBE700BF200B00201C0B0020180B002018030020012000227F49F8B5B7
:200BC0007F4C087025792270022DEBB264D108707C490968487801282FD1C888002800F0A2
:200BE000D0807948097B026003220129227105D0022918D00A23237122700FE07349744A78
:200C00001160744A1370FFF7D9FDFFF7E5FE7248FFF798FE44F24D20FFF7F2FD2078B0FA6D
:200C200080F04009F8BD6B4B1A70694B6A4A1A60FFF7C4FDFFF7D0FEECE7022823D109238C
:200C4000CA882371654B66481A801A8892B202801B884A889BB253435B4A13600B7B012B2C
:200C600006D0022B0CD00A23237103232370D5E7574B564A1A60FFF7C5FE5A4B1860CDE719
:200C8000534B554AF6E70628B5D0032801D12371C4E7052831D1FAE7032B0BD1494A126824
:200CA0005278032A04D105232371FFF753FFB5E7052AEFE7042B08D14B490878022801BFBD
:200CC000032362700B700523E1E7052B19D13D4B1A685378012B08D1D3880BB10323D6E7C3
:200CE00006232371FFF772FE98E7062B01D10223CDE7032BFBD0052BF9D00A2323710F2391
:200D0000B4E7062B08D12F4909684978032901D1082370E70529BDE7072BF9D0082BB6D07E
:200D2000092B39D1274B1A685378022B2DD1D18839B32A4852880388234D9BB25343244EAA
:200D40002B603368274FD5F800E00288734492B2D7F800C013446345214A04D803889BB218
:200D60001380092393E73B6830682D6828441B1A9BB2138013889BB29942B8D800231380E0
:200D8000B5E70A232371092370E7062BAFD0032BE7D0052BB1D1E4E70A2BAED1094B1B68D6
:200DA0005B78032B01D10A2371E7052BFBD0042BA3D102232371002358E700BF1703002029
:200DC00011030020040300201C0B002000500008C0020020200B0020002000081A0B00207F
:200DE000180B0020C4020020D0020020014B1878704700BF1703002000BFFDE7800000F138
:200E0000804000F5B8400368CA0623F4E04323F040039BB248BF83F010038A0648BF83F076
:200E2000200303607047800000F1804000F5B840036823F4804323F070039BB283F4405335
:200E400003607047800000F1804000F5B840036823F4E24323F070031B041B0C03607047CD
:200E6000FFF7F0BF800000F1804000F5B84003685B0409D5036823F4E04323F070031B04BD
:200E80001B0C43F4804303607047800000F1804000F5B84003685B0609D5036823F4E043AA
:200EA00023F070031B041B0C43F0400303607047064B1B689BB203EBC00000F1005000F5D1
:200EC00040504000006880B2704700BF505C0040054B1B689BB203EBC000044B03445B0087
:200EE000186880B2704700BF505C004004300020044B1B689BB203EBC000034B03445B00CD
:200F000019607047505C0040023000200D4B0E4A1B683E299BB203EBC00002444FEA42020B
:200F20000AD94B09C80604BF03F1FF339BB29B0243F40043136070474B08C90748BF0133D7
:200F40009B02F7E7505C0040063000202DE9F843DFF86481DFF86491D8F800304F4A99B217
:200F60001B04118052D547F6FF73C8F80030138803F00F0389F80030002B63D1484C494E20
:200F80002368494D03F4405333802368474F03F030032B8023683B409BB283F40053236061
:200FA000236823F4E04323F040039BB283F020032360138813F0100F236829D123F4E14333
:200FC00023F070031B041B0C236000F053FC236832883B409BB2D70448BF83F480539604B0
:200FE0002F4A48BF83F40053136013682A8823F4E04323F040039BB2D40648BF83F01003C3
:201000009006274A48BF83F020031360BDE8F883190601D52368D1E71A0508D5236823F0C7
:2010200070031B051B0D236000F048FACFE71B0492D5236823F070031B051B0D236000F038
:201040009DFBC4E79A0002F1804202F5B842146821040AD51168013B21F070010905090D32
:201060001160134A52F82330984722067FF574AF99F80020930003F1804303F5B8431968F8
:20108000013A21F4E14121F070010904090C1960084B53F8223098475EE700BFCC02002000
:2010A000005C0040D2020020D40200208FBFFFFF780000205C000020445C0040E002002068
:2010C000064B074A0749136002221A72064B074A1360074A1B681160184700BFE40200207D
:2010E000040300203800002000000020DC0200200003002010B5064C18B9012223681A82FE
:2011000010BD044B1B681B68984720680A30F7E7040300200003002010B5064C18B90122D9
:2011200023681A8210BD044B1B689B68984720680C30F7E704030020000300201F4B10B5EC
:201140001968034600201BB9022218460A8210BD1B4C20800B78224613F07F0312D1497AD9
:201160008C0644BF02231370137848064CBF23F0010343F001031370124B1B681B6998473A
:201180000F48E4E7012B17D0022BE0D1097901F00F039B0003F1804303F5B84309061B68E0
:2011A00005D503F03003102BE6D10123E3E703F44053B3F5805FF7E72046C8E70403002024
:2011C0000A030020000300202DE9F843234FDFF8A0803D682C8AD4B92E7A042E17D12049F2
:2011E0000B78012B0ED11F4B1A681F4B92B213445B001C6030230C70A8F800303B681E72C7
:20120000BDE8F88310230726A8F80030F6E7AA8AAB69944294BF04260226944228BF1446C7
:201220002046984781460020FFF742FE22460146484600F04DFB21460020FFF759FE2B8A4E
:201240006A8A1B1B2B82302314444FF44052A8F80030064B6C821A80D0E700BF04030020F1
:20126000210B0020505C004002300020D2020020D402002010B50A4B0A491B6849789A7837
:2012800091420AD3DC7844B9998831B99A72064B1B685B689847204610BD0224FBE700BFC6
:2012A00004030020340000200003002038B50E4A0E4D12682B6892699978187990472B68DC
:2012C0009A7A7AB170B95A7962B9DC7854B9084B1B68DB6898472B681A79DA729A781A734E
:2012E000204638BD0224FBE7DC020020040300200003002070B52D4B1D682B7813F07F03F9
:2013000005D16A7A22F020026A72184670BD022B49D16A88002AF8D16A79002AF5D12979D7
:20132000234E21F08000840004F1804404F5B8442268367849B20029B4BF02F0300202F490
:2013400040528642E1D9002ADFD0AA7A002ADCD00029236811DA03F03003102B07D1C4B258
:201360002046FFF792FD30212046FFF747FD114B1B685B6998470023C7E703F44053B3F50C
:20138000805FF4D10C4D58B90C4B93F83010FFF7BDFD23682B409BB283F440532360E6E7D0
:2013A000FFF760FDF5E70223AFE700BF0403002034000020000300208FBFFFFF000000207A
:2013C00038B51B4B1B4D18682D78017921F08004A30003F1804303F5B8431A6849B200292B
:2013E000B4BF02F0300202F44052A5421DD94488DCB9D2B1827AC2B11A680029B5BF22F469
:20140000E04222F4804222F0400222F07002B5BF92B292B282F0100282F480521A60064B67
:201420001B689B699847002038BD0220FCE700BF04030020340000200003002008B5064BC1
:201440001A68537A43F020035372044B1B68DB699847002008BD00BF04030020000300203F
:20146000054B10B51C68628A18B98B889B1A238210BD08681044FBE70403002008B50B4BFC
:20148000002093F83010FFF741FD094B1B68187A082806D14FF48052064B1A801022064B3A
:2014A0001A80A0F109035842584108BD0000002004030020D2020020D402002073B5974DC0
:2014C000974B2A68974C92B213445B001A682368197A09290FD092B2520002F1804202F5CC
:2014E000C042117819705178597091885980118999809289DA8001221A72DA885E78002A1B
:2015000064D11A7812F07F024DD1092E03D1FFF7B1FE40BB16E0052E20D193F90220002AC6
:2015200007DA08232268137202B0BDE87040FFF7A5BFDA78002AF4D19A88002AF1D19B7ACB
:20154000002BEED12A68784B92B2134400225B001A603022754B1A800623E3E7032E14D105
:201560009A78012A08D0724B30461B685B699847032828D10923D5E79A88002AF3D15B7A0C
:201580009A06F0D5FFF75AFFC3E7012EEBD19A78012AE8D19A88002AE5D15B7A9B06E2D5DD
:2015A000FFF7A8FEB5E7012A04D10B2EDBD1FFF77DFEAEE7022AD6D1012EF1D0032ED2D171
:2015C000FFF7FEFEA5E70028BCD0AAE7062E17D11A7855065ED1DB78554A012B126803D1A4
:2015E000D369002B56D01EE0022B01D1136AF8E7032B01D1536AF4E7212B4BD1936AF0E731
:20160000002E54D15988002944D15A6822F0FF02B2F5003F3ED11A7812F07F0215D19B8870
:20162000002B37D1434B0025226828465582936198474FF6FF7123681A8A8A4234D0022D3F
:2016400001D0002A56D108222FE0012A0AD1384A1879126892699047E0B923689B7A002B66
:20166000E0D117E0022A15D11A7902F00F018B00100603F18043304803F5B8431B6800785D
:201680004CBF03F0300303F44053884202D912F0700FE4D0264B22681B6850781B6998470C
:2016A00003280546C5D1236809221A723CE7082E04D11B785B06EDD1204BB4E70A2EE9D104
:2016C0001A7802F07F02012AE4D19A7A002AE1D059880029DED15A6822F0FF02B2F5803F42
:2016E000D8D1134A18791268926990470028D1D1134B98E793F90010002934DAD9880C48D8
:2017000001910068019D90F83040AA42204619D9019A1A829882FFF757FD05E7505C004082
:20172000043000200403002002300020D4020020DC0200203D11000834000020F510000831
:20174000191100088A42E5D2A24203D20021094A1170DFE7B2FBF4F104FB1122002AD9D1C8
:201760000121044AF4E703221A724FF44052024B1A80D9E6210B0020D2020020F8B5294E8E
:201780003468237A032B01D0052B43D1A369B3B1258A0DB3A28A954228BF1546284698475C
:2017A000238A07465B1B2382638A00202B446382FFF78EFB2A460146384600F098F8238AD2
:2017C00053B100214FF44052174B08461A80FFF78FFB3022154B1A80218AA38A32688B42BA
:2017E00008D803231372137A32681372BDE8F840FFF744BE09B10523F4E7062313720C4B1B
:2018000018680C4B80B203445B0019603021074B1980E8E7072B03D1074B1B68DB6898479C
:201820000823E1E704030020D2020020D4020020505C004002300020DC02002030B5002261
:2018400048F68F75094B1C78A24204D3084B40F08000186030BD930003F1804303F5B843FE
:2018600019682940114319600132EDE7340000204C5C004010B5134C23681A7A022A01D02E
:20188000042A09D1FFF7A0FC23681B7A22681372BDE81040FFF7F2BD062A10D15A78052AD3
:2018A00009D11A78520606D19878FFF7C7FF064B1B681B6A9847054B1B689B6898470823A9
:2018C000E4E700BF0403002000030020DC02002001F10051013201F540515210490002B9D3
:2018E000704730F8023B013A21F8043BF7E7002310B501F10051013201F5405152104900CB
:201900009A4200D110BD51F8234020F813400133F6E700008D0400086501000833010008E2
:20192000ED02000851020008C5020008350100080D02000819020008250200084502000890
:20194000000000004000000001010000EF02000841010008F1020008F3020008F50200080B
:20196000F7020008F9020008E902000859010008EB020008EB020008EB020008EB0200083A
:20198000EB020008EB020008EB020008EB020008EB020008EB020008EB020008EB0200089F
:2019A000EB020008EB02000809022D0001010080320904000000FE0102040904000100FE33
:2019C0000102050904000200FE010206092103FF00000810011201000100000040AF1E0380
:2019E00000010201020301092103FF00000810018003530054004D003300320064007500E3
:201A000069006E006F00200062006F006F0074006C006F006100640065007200200076009F
:201A200031002E003000200020004500520052004F0052002E002000550070006C006F005F
:201A400061006400200074006F002000520041004D0020006E006F00740020007300750045
:201A6000700070006F0072007400650064002E006C03530054004D00330032006400750099
:201A800069006E006F00200062006F006F0074006C006F006100640065007200200076001F
:201AA00031002E00300020002000550070006C006F0061006400200074006F002000460089
:201AC0006C0061007300680020003000780038003000300035003000300030006C03530077
:201AE00054004D00330032006400750069006E006F00200062006F006F0074006C006F0012
:201B000061006400650072002000760031002E00300020002000550070006C006F006100C3
:201B20006400200074006F00200046006C00610073006800200030007800380030003000D0
:201B400032003000300030000403090414034D00610070006C0065002000300030003300F6
:201B600010034C004C004D00200030003000330012034C006500610066004C00610062001E
:201B800073000000940000202D000000C100002012000000D30000200900000034020020AC
:201BA000040000005C0200201200000038020020140000004C02002010000000DC000020A9
:201BC000800000005C0100206C000000C80100206C000000000C002000500020FFFFFFFFAF
:201BE000FFFFFFFFFFFFFFFFFFFFFFFFFFFFFFFFFFFFFFFFFFFFFFFFFFFFFFFFFFFFFFFF05
:201C0000000C00200000000000000000000000000000000000000000000000000000000098
:201C20000000000000000000000000000000000000000000000000000000000000000000A4
:201C4000000000000000000000000000000000000000000000000000000000000000000084
:201C6000000000000000000000000000000000000000000000000000000000000000000064
:201C8000000000000000000000000000000000000000000000000000000000000000000044
:201CA000000000000000000000000000000000000000000000000000000000000000000024
:201CC000000000000000000000000000000000000000000000000000000000000000000004
:201CE0000000000000000000000000000000000000000000000000000000000000000000E4
:201D00000000000000000000000000000000000000000000000000000000000000000000C3
:201D20000000000000000000000000000000000000000000000000000000000000000000A3
:201D4000000000000000000000000000000000000000000000000000000000000000000083
:201D6000000000000000000000000000000000000000000000000000000000000000000063
:201D8000000000000000000000000000000000000000000000000000000000000000000043
:201DA000000000000000000000000000000000000000000000000000000000000000000023
:201DC000000000000000000000000000000000000000000000000000000000000000000003
:201DE0000000000000000000000000000000000000000000000000000000000000000000E3
:201E00000000000000000000000000000000000000000000000000000000000000000000C2
:201E20000000000000000000000000000000000000000000000000000000000000000000A2
:201E4000000000000000000000000000000000000000000000000000000000000000000082
:201E6000000000000000000000000000000000000000000000000000000000000000000062
:201E8000000000000000000000000000000000000000000000000000000000000000000042
:201EA000000000000000000000000000000000000000000000000000000000000000000022
:201EC000000000000000000000000000000000000000000000000000000000000000000002
:201EE0000000000000000000000000000000000000000000000000000000000000000000E2
:201F00000000000000000000000000000000000000000000000000000000000000000000C1
:201F20000000000000000000000000000000000000000000000000000000000000000000A1
:201F4000000000000000000000000000000000000000000000000000000000000000000081
:201F6000000000000000000000000000000000000000000000000000000000000000000061
:201F8000000000000000000000000000000000000000000000000000000000000000000041
:201FA000000000000000000000000000000000000000000000000000000000000000000021
:201FC000000000000000000000000000000000000000000000000000000000000000000001
:201FE0000000000000000000000000000000000000000000000000000000000000000000E1
:2020000000500020614C0008214F0008254F0008294F00082D4F0008314F0008814F000843
:20202000814F0008814F0008814F0008814F0008814F0008814F0008814F0008D955000882
:20204000814F0008814F0008814F0008814F0008814F0008814F0008CD520008D35200081C
:20206000D9520008DF520008E55200080D5100081D5100082D5100083D5100084D51000817
:202080005D5100086D510008D94F0008814F0008DD5A0008814F0008814F0008EB52000888
:2020A000E157000805580008295800085D580008AD580008B9580008C5580008BD530008D2
:2020C000D5530008C9530008E1530008814F0008814F000899590008B1590008C95900088A
:2020E000F3520008814F0008814F000810B5054C237833B9044B13B10448AFF300800123A1
:20210000237010BD3807002000000000BC91000808B5064B1BB106480649AFF300800648C4
:20212000036813B1054B03B1984708BD00000000BC9100083C0700203807002000000000B1
:2021400090F900308B4205D000230022436002814281C360017070472DE9F7430446476862
:202160000846884606F096F90146384606F0E6F9E16806F0DBF80021064606F09BFBB0B1B8
:20218000304605F0CBF92E49054606F089FB50B928464FF0434106F079FB30B9284606F0E3
:2021A00093FBC5B204E07F2502E0802500E0054668B206F06FF90146304606F0B5F823895C
:2021C000E06033B1984528BF9846C8EB030323811BE06689BEB1B04528BFB046C8EB0608F0
:2021E000404606F057F90146384606F0A7F98146304606F04FF90146484606F053FAA4F889
:202200000A80606001E000236360237838465D4300218DF8045006F025FB48B960680021FA
:202220004FF0010506F01EFB00B90546EDB200E000259DF8040040EA052003B0BDE8F083EF
:202240000000FE4208B504F081FE003018BF012008BD08B504F07AFE003018BF012008BD0B
:2022600038B5094C04F108056078002104F0A2FD6078002104F080FE14F8010F052104F0ED
:2022800099FDAC42F0D138BD0F00002038B5074C04F108056078002104F08CFD14F8010F01
:2022A000002104F069FEAC42F4D138BD0700002008B5FFF7EBFFFFF7D3FF002307490022D9
:2022C0005A5407495A5407495A540133082BF5D1BDE808404FF4FA7004F07EBE3008002005
:2022E00094070020580800202DE9F0410025384E0121384C705D04F03FFE4FF42F7004F037
:2023000080FE2078FFF7A5FF80466078FFF7A1FF0746A078FFF79DFF800040EA4707E07892
:20232000FFF797FF47EA0807FFB247EAC000C7B22079FFF78EFF47EA0010C7B26079FFF711
:2023400088FF47EA4010C7B2A079FFF782FF47EA8010C7B2E079FFF77CFF47EAC010C4B2F1
:202360000021705D04F008FE1B4BEA5C1E46A24206D05C55194B01221A70194A12685A8032
:202380000135082DB3D115480378D3B1144B1A684388D31A142B14D9002300210A46B45C89
:2023A0001C4104F00104944001322143082AC9B2F5D10C4AD1540133082BEED100230370B2
:2023C00002E0012004F008FE0120BDE8F08100BF080000201000002094070020C60700200A
:2023E000A01100203008002008B5FFF761FF024B00221A705A8008BDC607002008B530200F
:2024000004F0A4FDC0B208BDF8B51D46837C02EBC1020446D6B27B4F3BB106EB831337F8F3
:202420001310794B01229A5504E0037C06EB831337F813104FF6FF73994200F0E180F42967
:2024400000F0A880FE2900F08980237D012B00F0D780F9296BD00DD8E92943D004D8C12904
:2024600015D0E82929D0B9E0F42900F09380F82953D0B3E0FC296CD004D8FA2964D0FB2925
:202480005DD0ABE0FE2969D0FF296ED0A6E0012D09D12068C1210368DB689847236801228B
:2024A00083F86120F8BD002D40F0AA802068C121036880F861501B6996E0FFF79FFF01282F
:2024C0000DD1012D03D120680368DB6805E0002D40F09680206803681B69202184E0A0686A
:2024E000092113E0FFF78AFF01280DD1012D03D120680368DB6805E0002D40F08180206836
:2025000003681B69B0216FE0A0680A212A1C18BF0122BDE8F84001F0BBBF012D02D1E068A8
:202520006F2108E0E068BDE8F84001F0A5BF012DF8D1E0687021BDE8F84001F099BF012D85
:20254000F0D1E068E921F6E7012DEBD1E068EA21F1E7012DE6D1E068E221ECE7012D4FD125
:20256000237D83F001032375F8BD012D48D1E37C26480133DBB2022B88BF0023E37404F040
:202580006BFBE27C224B082033F81210BDE8F84004F0F4BB012D06D1238D002B30D1F4231D
:2025A000A574A385F8BD002D2AD1238D93B9164EAB5D53B12068A27C036805EB82121B6978
:2025C00017F8121098470023AB550135402DEED10023A3740023A3856385F8BD012D05D140
:2025E0002068C9B20368DB689847F8BD45B92068C9B203681B699847A37C0BB1024B9D55AD
:20260000F8BD00BFB09A0008CC070020A80700203899000870B50E4BA2B05B5C0646134132
:20262000DB070D46144611D50A2301FB033313440133009307492A46234602A806F06CFA79
:202640003046294622460123FFF7DEFE22B070BD300800203E990008F0B50F4BA3B05B5CF8
:202660000746134113F001060D46144611D10A2201FB022222440132009208492A4623467F
:2026800002A806F049FA3846294622463346FFF7BBFE23B0F0BD00BF300800205199000851
:2026A0002DE9F84F8046FFF71FFE0024154B5FFA84F9E75C144B14F803B09A4697EA0B0BB2
:2026C00004D10134082CF1D1BDE8F88F0025012616EA0B0F0ED03E42404649462A4602D0B3
:2026E000FFF798FF01E0FFF7B7FF1AF8043073400AF804300135EDB27600082DF6B2E7D1B1
:20270000DFE700BF300800205808002010B50024044B0421185D013404F04CFB112CF7D115
:2027200010BD00BF1800002038B51E2004F069FC00242546154B185DFFF784FD80F0010005
:20274000C3B2A3400134112C45EA0305F2D110490B68AB420F4B05D001221A700E4A0D605B
:2027600012685A801B780B4A5BB10B4B18685388C31A052B05D9094B096819600023137091
:2027800002E0012004F028FC012038BD1800002028080020A4070020A0110020A00700201D
:2027A00010B50446FFF7B2FFA06840F2FF1101F07EFEA06840F2FF1101F096FE024B00226E
:2027C0001A705A8010BD00BFA407002081422EBFC0EB01004042C1EB0000704710B51446DE
:2027E000FFF7F4FFA04228BF204610BD38B50B4B04461D68038913B94FF47A7308E000680A
:2028000029464FF47A72FFF7E9FF63681844430863604FF47A732560238138BDA0110020E8
:2028200003898B428CBFC1EB030300230381038913B14368194441607047000008B50389A2
:2028400053B1406830B105F021FE0146034805F029FF08BD014808BD002008BD00007A44B2
:2028600043780BB10123837070470023437083708088C01A18BF01207047000070B5837C95
:2028800015460446A14A03B9037C03EB0313194432F811604FF6FF739E4200F09281237D37
:2028A000012B00F08E81EC2E00F0878018D8852E34D00BD8812E31D001D8802E03E0822E88
:2028C00000F04681842E00F02D816EE1872E00F05581C0F03D81EA2E3CD0EB2E53D064E114
:2028E000F12E00F0E2800AD8EE2E00F099807DD3EF2E00F0AA80F02E00F0C28055E1F62E2F
:2029000000F0F18003D8F52E00F0E3804DE1F72E00F0FE80FD2E00F0398146E1012D0AD13F
:20292000A38B002B40F04D812068F1B20368DB689847268470BD002D40F04381A38B002B37
:2029400040F03F812068F1B203681B6998472584E58370BDFFF752FD01280DD1012D03D102
:2029600020680368DB6805E0002D40F02A81206803681B69DA2123E1A068C5B10021BDE87A
:20298000704001F0B1BDFFF739FD01280DD1012D03D120680368DB6805E0002D40F01181E9
:2029A000206803681B69D9210AE1A06815B940F2FF11E4E740F2FF31E1E7FFF71FFD012873
:2029C0000DD1012D03D120680368DB6805E0002D40F0F780206803681B69D821F0E0A068E0
:2029E000C5B10021BDE8704001F061BDFFF706FD01280DD1012D03D120680368DB6805E0BF
:202A0000002D40F0DE80206803681B69D721D7E0A06815B940F2FF11E4E740F2FF31E1E7C8
:202A2000FFF7ECFC01280DD1012D03D120680368DB6805E0002D40F0C480206803681B697C
:202A40006A21BDE0A068022113E0FFF7D7FC01280DD1012D03D120680368DB6805E0002D16
:202A600040F0AF80206803681B696B21A8E0A06803212A1C18BF0122BDE8704001F008BDF5
:202A8000FFF7BCFC01280DD1012D03D120680368DB6805E0002D40F09480206803681B697C
:202AA00075218DE0A0680121E3E7FFF7A7FC01280CD1012D03D120680368DB6804E0002D37
:202AC0007FD1206803681B69692179E0A0680421CFE7012D02D1606801215BE0002D70D1D5
:202AE000606801215DE0012D636B03D100225D709A8070BD9B781BB96068042101F0B4FD33
:202B0000606BBDE87040FFF7B0BE00BF90990008012D02D1606802213CE0002D51D1606822
:202B200002213EE0012DE58A08D1002D49D12068F1B20368DB689847668370BD002D40D18B
:202B40002068F1B203681B6998476583258370BD012D658C08D1002D33D12068F1B2036800
:202B6000DB689847E68470BD002D2AD12068F1B203681B699847E584A58470BD2068012D06
:202B8000036831460CBFDB681B6919E0012D05D160680421BDE8704001F0A5BD8DB9606821
:202BA0000421BDE8704001F0A3BD012D03D120680368DB6803E025B9206803681B69F1B237
:202BC000984770BD2DE9F8430646114FFFF7ACFD10493A680B68894692EA030816D000257E
:202BE000012414EA080F0BD0D9F8002030462240294618BF0122FFF741FE3B6863403B6078
:202C00000135EDB2112D4FEA4404EAD1BDE8F88354070020A007002073B5054672B6426BBB
:202C2000002354789380374A84F0010411781646A14205D0344A13819382344A137009E0EA
:202C4000314895F83810FFF7EBFD314895F83810FFF7E6FD012C34702E4E27D12E4C95F8D5
:202C600038102046FFF778FA95F83810ADF8000004F11000FFF770FAADF80400C2B29DF8AD
:202C800001009DF80010234628B10020606100241C835C83D8619DF8050028B100200024D9
:202CA00058611C835C83D861002417E0174B71781A780A44D2B254B2022194FBF1F4E4B2A7
:202CC000C4EBC41102EB41021A702CB1686BFFF7C7FD0022114601E022462146002333705D
:202CE000737062B609B902B94CB16342686849B252B25BB202B0BDE8704001F0D3BC02B0A5
:202D000070BD00BFC4070020AC0700209C070020B8070020CA07002038080020104A08B5FF
:202D2000104B11681868FF221960FFF757FD0E4BC0B298635B6B80B29A8882428BBFC0EBC2
:202D40000200002298809A800748FFF765FF0648FFF738FFBDE808400348FFF7A1BC00BFAF
:202D6000A01100202C0800205807002008B52B20022104F01FF82820022104F01BF82920BE
:202D8000022104F017F82A20022104F013F82B200A49022203F0CAFF29200949022203F071
:202DA000C5FF28200749022203F0C0FFBDE808402A200549022203F0B9BF00BFE5310008F0
:202DC00045310008A1300008013000082DE9F041774F8CB03846774901F09AFC3846764918
:202DE00001F098FC7549384601F096FC642003F0C3FF734B002403600225092344608DE8A5
:202E00002800704B064602941A686F4906F14803083001F0D1FE6D4B86F85A503360A6F868
:202E2000585006F151034FF0010886F86050684D736586F85B8086F8618050202E6003F0F3
:202E40009BFF0D2214238DE80C00624B029406461A685D4900F1400301F0AEFE96F840306B
:202E600086F8484033640F2386F84530202386F846306FF07F0386F84730022386F8493067
:202E8000082386F84A3086F84B4086F84C4086F84D4086F844404820AE6003F06DFF0523F2
:202EA0008DE808014C4B029406461A68464900F1410301F081FE86F8404044206E6003F042
:202EC0005BFF032300930193444B02941A6806463D4900F1400301F06FFE336C062064F324
:202EE000172333642B68EE6083F8614003F044FF047044708470848068631C202C746C7427
:202F0000AC74EC742C75EC822C836C83AC83EC832C846C84AC84EC842C856C85AC8503F0E0
:202F20002BFF2F494460034640224FF47A70196098601C745A619A612B63DB6807900893B9
:202F400005910A920B9205A9264ADB231E4806948DF8244001F0C4FD234B97F874101A68E8
:202F600001B9FEE7137B052BFAD11948FFF73CFA1748FFF715FC1648FFF7F8FE3020022179
:202F800003F018FFC821194803F074FE174803F063FE0820072103F00DFF0021082003F03A
:202FA000EDFE4FF47A7004F017F80CB0BDE8F081B80D0020729900087E99000887990008E5
:202FC000A0A10008E40100200C080020309D000858070020E0010020E8010020C001002030
:202FE000509D0008D499000838060020A807002008B504F015FEBDE8084004F0D3BA000008
:203000002DE9F041224B234D5A78234C05F10C07013238465A70FFF7E9FB012104F11000C6
:20302000FFF78EF82846FFF709FC06463846FFF705FC31460746304605F080FA39468046FC
:20304000384605F07BFA0146404605F06FF904F0FFFA1249804620F0004005F023FB414666
:2030600005F020FB80464146384605F067FA41460746304605F062FA6060288AFFF7B8FF65
:2030800005F0DEF880B2676120836083BDE8F081CA070020AC070020380800200000F0417A
:2030A0002DE9F041234B244D5A78244C05F10C07013A38465A70FFF799FB4FF0FF3104F12E
:2030C0001000FFF73DF82846FFF7B8FB06463846FFF7B4FB31460746304605F02FFA394658
:2030E0008046384605F02AFA0146404605F01EF904F0AEFA1249804620F0004005F0D2FACC
:20310000414605F0CFFA80464146384605F016FA41460746304605F011FA6060288AFFF7E8
:2031200067FF05F08DF880B2676120836083BDE8F08100BFCA070020AC0700203808002036
:203140000000F0412DE9F041224B234D1A78234C013228461A70FFF749FB01212046FEF737
:20316000EFFF2846FFF76AFB074605F10C00FFF765FB39460646384605F0E0F9314680469F
:20318000304605F0DBF90146404605F0CFF804F05FFA1349804620F0004005F083FA4146AF
:2031A00005F080FA80464146384605F0C7F941460746304605F0C2F90646A888FFF718FF9D
:2031C00005F03EF880B26760208160816661BDE8F08100BFCA070020AC0700203808002089
:2031E0000000F0412DE9F041224B234D1A78234C013A28461A70FFF7F9FA4FF0FF31204688
:20320000FEF79EFF2846FFF719FB074605F10C00FFF714FB39460646384605F08FF9314613
:203220008046304605F08AF90146404605F07EF804F00EFA1249804620F0004005F032FA14
:20324000414605F02FFA80464146384605F076F941460746304605F071F90646A888FFF77F
:20326000C7FE04F0EDFF80B26760208160816661BDE8F081CA070020AC070020380800202D
:203280000000F0410E4B10B54022002401210D485A6019705C70DC601C615C6103F0C6FCA8
:2032A000094B00221C81DC609C821C60074B5A601C815C81DA605A611C835C83DA6110BD24
:2032C0000C080020A8070020AC0700203808002008B51E49422205F065FB1D4A0346917D1D
:2032E00090F82600014483F8261093F8360092F82210927A014483F8361093F83D109878B3
:203300000A4483F83D20134A9178014499709278997A1144997293F82D10114483F82D1081
:20332000997E1144997693F82210114483F8221093F823100A4483F82320074A12681A871D
:20334000064A1268A3F83F2008BD00BFB09B00085C000020300000208000002084000020C2
:20336000064A00231360064A1360064A1360064A1360064BFF221A70704700BF780A00200A
:20338000700900206C090020640800206108002007B5074B074A1B680092074A0749019242
:2033A00007484FF4807200F0C5FE03B05DF804FB6C09002064080020610800207809002084
:2033C0005C00002002F07F02212A13B514D199B9022805D0222805D1094A03F003031370C6
:2033E0000C4600E00224074B1B6833B102A901F8010D0220984700E00224204602B010BD1E
:20340000600800207409002037B502F07F02212A05460C461AD1C9B9202807D021280BD18F
:203420000C480721224600F0C3FD06E009480721224600F031FE00E00224074B1B6833B153
:2034400002A901F8015D0220984700E00224204603B030BD290000207409002037B51A4D24
:203460001A4C2A6802AB43F8042D04F118004FF48072174900F02EFE019B164A2B6012687C
:203480009B1A154ADBB21268C2F58072934212D294F822309B0003F1804303F5B8431A680A
:2034A00022F4804222F0700242F4004242F0800282F440521A60094B1B6813B10120002125
:2034C000984703B030BD00BF780A00205C0000206808002070090020800000206809002036
:2034E000034B002808BF40201881024B186070475C00002084000020002808BF402008B5EE
:2035000080B200F061FE024B1884024B186008BD5C00002080000020C20744BF034B196008
:20352000830744BF024B1960704700BF680900207409002070B50C4629B31449144A0B6813
:2035400012680D469A1AD2B2C2F1FF02944201D9BAB11446002291B2A14202F1010205D228
:20356000465C0C49CE540133DBB2F4E72B600A4B1A781206FBD51B781B0604D5FFF708FFB2
:2035800001E0104670BD204670BD00BF6C090020640800207809002061080020034B18685C
:2035A000034B1B68C01AC0B2704700BF780A0020700900200A4B10B51A680A4B1B689B1A14
:2035C000DBB2994228BF194600238B4206D0064CA45C0132C454D2B20133F6E7184610BD1A
:2035E00070090020780A00206808002008B5FFF7E1FF104A13680344DBB213600E4A12687F
:20360000D31ADBB2402B13D80C4B93F822309B0003F1804303F5B8431A6822F4804222F0F5
:20362000700242F4004242F0800282F440521A6008BD00BF70090020780A00205C0000202F
:203640000B4B10B51B6819440A4BC9B21B685B1ADBB2934238BF1A460023934206D0064CCE
:20366000645C0131C454C9B20133F6E7184610BD70090020780A002068080020024B1878E1
:2036800000F00100704700BF60080020014B1868704700BF29000020800000F1804000F58A
:2036A000B840036823F4E04323F0400343F4004343F0800359400160704700000B4B1B685D
:2036C0005A8A20B90A4909888A1A1A8270470949096831B1D8889B8A134498429CBF012378
:2036E0000B70054B186800B110447047D81100203C0C0020A80A0020340C0020104B10B500
:203700001B685A8A60B90F4CD98824888C4238BF21468A423ABFC2EB01021A82188210BD1D
:203720000949096831B1D8889B8A134498429CBF01230B70054B186800B1104410BD00BFD3
:20374000D8110020A60A0020380C0020400C00202DE9FF41164B1C68227802F01F03012BAB
:2037600021D1144B2179D3F800C0134BD3F800800023634517D058F82360376A8FB1B57897
:203780008D420ED836782E44B1420ADA491BE578A3780095A588C9B20195E4880294B847CD
:2037A00002E00133E5E7022004B0BDE8F08100BFD8110020A00A0020140C00202DE9F3411F
:2037C000154B1C68227802F01F03012B1FD1134B2179D3F800C0124BD3F800800023634545
:2037E00015D058F82360776A7FB1B5788D420CD836782E44B14208DA491BE578A3780095BA
:20380000A488C9B20194B84702E00133E7E7022002B0BDE8F08100BFD8110020A00A00200D
:20382000140C002010B50B4B1B689B7A1BB10A4B05221B681A730024084B1B689C4208D28B
:20384000074B1B6853F824305B6903B198470134F2E710BDD811002038060020A00A002091
:20386000140C002010B50024064B1B689C4208D2054B1B6853F824309B6903B19847013455
:20388000F2E710BDA00A0020140C0020024B04221B681A73704700BF38060020012906D819
:2038A000044B1B79834294BF0220002070470220704700BFAC0A002030B5134B05461B6895
:2038C0009A78124B1B7893421CD9114C04EBC2018B889BB954F83200C45C0E4A59002CB17A
:2038E000242B03D00A4454800133F5E78B1C0A49D8B210708880A84228BF2846BDE8304014
:2039000002F0F0BD002030BDD81100206801002048010020880000206C010020014902F08F
:20392000E1BD00BF20010020014902F0DBBD00BF2801002038B5154B00221B6801219A72ED
:20394000134B4FF4E050196412490C681A645A6418644FF43F405A64206018640E4B4FF47A
:203960008010186014460D460C4B1B689C4208D20B4B1B6853F82430DB6803B1984701347D
:20398000F2E72B6800221A7338BD00BFD8110020005C00403806002000E100E0A00A0020CA
:2039A000140C0020034B1B6D03EBC0004300024818447047005C0040046000408B4B2DE977
:2039C000F74F1B688A4C0025C0229D725A722565226848F68F13134043F400732846236084
:2039E0001021FFF759FE226D824B5200134480221A60236D40215B0003F1804303F5C0432A
:203A00001960226848F68F6313402360284602F087FB2368012523F4804323F0700343F473
:203A2000004343F0800383F440532360AC0004F1804404F5B8442368E8B223F4804323F094
:203A4000700343F4004343F0800323602368590406D5226848F68F73134043F480432360E3
:203A60000021FFF719FE23685A0606D5226848F68F73134043F0400323600135082DD5D12B
:203A80004FF000085C4B00201B68984580F0A1804FEA880B0746594B1B6853F80B305A788F
:203AA000974280F090809B6A0C2404FB0734A67AE17AB50005F1804505F5B8452A6848F68C
:203AC0008F1313404E4A01F0030132F81120DFF820A113432B60E37A296813F0040F48F64E
:203AE0008F630CBF00224FF480720B4013432B6063684FEAC60903F14043A3F5C0434FEA68
:203B0000A30CE37A4FEA4C0C1FFA8CFC13F0080FDAF850202CF0010337D04A44520002F111
:203B2000804202F5C0421360304620218DE80810FFF7B2FD9DE80810E27A12F0040F40D050
:203B4000DAF8502025894A44520002F1804202F5C0421360DAF8503009F104026D081A444F
:203B600052000CEB050302F180429BB202F5C04223F0010313603046FFF714FF21890560E1
:203B80004908304602F0CCFA1BE009F104094A44520002F1804202F5C0421360E37A5B07E4
:203BA00003D43046218902F0BBFA2B6823F4804323F0700343F4004343F0800383F440533A
:203BC0002B60013767E71B6903B1984708F1010858E70C4B012218800B4B18800B4B1B68A3
:203BE0001A7303B0BDE8F04F02F076BED8110020005C004008600040A00A0020140C002024
:203C000074010020A60A00203C0C0020380600202DE9F04F884B91B01860884B0122196029
:203C2000874B08911A700023864A87495A5087495A5004331C2BF7D10024C0210491A146E1
:203C4000A346A24608998C4200F0AA807A4B1B6853F8245003EB840205932B7809920A931C
:203C6000AB8885F802A04B44C82B01DD0020E0E0734B4FF000081878AB6A0A336A78904514
:203C80007FD20C2202FB08F20B925A78A3F10A06920644BF0BF10100C0B206960246072A7C
:203CA0006CD8099F0B9E3F68B96A07970E440D9600214FEA810CCDF830C00026A1423AD261
:203CC000079F97F801C0664535D2DDF814C00C9F5CF807704FF00C0CBF6A0CFB067797F88A
:203CE0000AC00E97944524D197F80BC00D9FCDF80CC0FF7ACCF3C00C0297C7F3C007BC45D1
:203D000000F09480DDF808C01CF0100F40F08E80039F17F0100F40F0898007F0070CCDF8C9
:203D200038C0DDF808C00CF00707DDF838C0BC457CD10136C2E7A14201D14645C5D30131DF
:203D4000A142B6D9049E069F710001F1804101F5C04143F8061CFE7A5FFA82FC770733F83A
:203D6000021C39D57C2931D8033121F00301049E314489B2B1F5007F049139D9304B1870FF
:203D800074E72F4BDDF828C018703148AB684844E2449847AB8801344B441FFA83F951E728
:203DA0002C4A2D4B1168012019605168127A59601A7209F1090292B283F804A05A80274BC4
:203DC0009A80274B0BF101021A7032E03707CBD43F3121F03F01CAE73E2901D9360703D517
:203DE000013121F00101C2E71F3121F01F01BEE753F80A1C11B9134943F80A1C069F1A7088
:203E0000F97A53F80A6C11F0080F18BF0E4F4FFA8CF108BF0D4F01F1FF3C47F82C6008F148
:203E200001080C338B45B8BF934627E70132D2B235E711B0BDE8F08F140C0020A00A00204A
:203E40009C0A00206D690008180C0020800A0020B50A0020F89B0008AC0A0020200100203F
:203E60003001002030B5039D144C08B1208104E06FF0500020721E20607209B1618102E0FF
:203E80002420A072E1720E490E48002A08BF0A460D498A600022934208BF03460B618A81CD
:203EA0008A820A4B1DB903221A70257430BD8A8304221A70032323748D6130BD32010020EE
:203EC000289C0008F29B00084801002068010020F8B5294B03221C680C21204601F03CFA0B
:203EE00023684FF080521A61244B1B6823B1DB00013B18460138FDD820460C21042201F0B8
:203F00002BFADFF8A8C01E4BBCF800201D4D1E4C1A800FCC0FC50FCC0FC594E80F001B4E40
:203F200085E80F000FCE1A4D0FC50FCE0FC5374657F820392B60174B174D1B88ACF800304F
:203F4000A4F1200C0FCDACE80F000FCDACE80F0095E80F0084E80F00104C0FCC0FC70FCCB3
:203F60000FC723680E4933600E4B0F4A1868BDE8F84001F08FBD00BF80A00008440100205E
:203F8000A40A0020A40B002054060020A4060020800B002030010020349C0008049C0008C4
:203FA000180C002038060020800A0020D0060020064B1860064B00201980064B1A60064BD0
:203FC000064A1B689A615882FFF778BB340C00203C0C0020A80A0020D8110020BD36000872
:203FE000034600201BB11A689B681044FAE770472DE9F8431D4B80461C681D4B658A38B9D0
:204000001868FFF7EDFF401B20824046BDE8F8831C6844B30026334608EB050293421DD2C3
:204020002068C0B11F18BD4216D29D428CBFC3EB05010021BA429ABFC3EB0203C1EB0309AA
:20404000C1EB000963680B48194430444A4604F0A9FC4E4400E01F46A46814B90548BDE8F1
:20406000F8833B46D8E72046BDE8F883D81100207C0A0020D40B0020044B054A1860054BEB
:2040800000201B689A615882FFF7B2BF7C0A0020F13F0008D8110020064B1860064B002020
:2040A0001980064B1A60064B064A1B689A615882FFF724BB400C0020A60A0020380C00202E
:2040C000D8110020FD3600080346998800680022FFF76EBFF0B506461448B57A1C68006D18
:2040E000776800EBC500124D400028580025C0F30900854217D257F815601FFA86FCF6B27A
:204100000E550134B4FBF2F602FB16446E1C864209D24FEA1C260E550134B4FBF2F602FB45
:2041200016440235E5E71C60F0BD00BF005C00400C600040F8B5069F06463D6807985B1B9A
:20414000B3FBF2F402FB1434002CB8BFA41844B903785BB2002B02DCFF23037032E004707E
:2041600027E001230370338970689C42A8BF1C460023A3421CDA11F805E00135B5FBF2FCA6
:2041800002FB1C5503F1010CA4455FFA8EFE02DBC0F800E00CE011F805C001354EEA0C2E0B
:2041A00040F804EBB5FBF2FE02FB1E550233E0E73D60B07AFFF7F6FBA3B20360B07A3021EB
:2041C000FFF76AFA2046F8BD11220123834205D2013A02D05B009BB2F8E77047002B18BF2A
:2041E00018467047022830B54FF0000314BF002502250C225A43084CA018A2583AB1C27943
:2042000002F00202AA4202D182798A4203D00133082BEED1002030BD580D0020044A002326
:204220001360044A1360044BFF221A70704700BF540C00204C0C0020480C002007B5074B60
:20424000074A1B680092074A0749019207484FF48072FFF76FFF03B05DF804FB540C002055
:204260004C0C0020480C0020580C0020A801002010B502F07F02212A044619469DF808003C
:2042800027D1012C19D0092C3FD1831E012B3CD8FFF7A8FF0446002837D0C379DB0702D4E0
:2042A000037A012B2FD02068A18804F1080289B2FFF7F2FE0123237223E0032825D1FFF7B2
:2042C00091FF034608B3027AFAB10068998889B214E0012A19D1032C0ED0062C15D12228E7
:2042E00004D10B4B1868FFF7C7FE0AE021280CD10848FFF7E9FE04E0074811460022FFF779
:2043000057FE002010BD032010BD022010BD00BF500C0020B8010020440C0020114B10B5D7
:204320000246044603F1180153F8040B8B4242F8040BF9D11B7813700B4BA2789B781344B4
:20434000A3700A4B227D9B7A13442375084B1868FFF746FE074B20741B68C0F3072060742E
:20436000E38210BD689C00087C010020A8010020500C0020B401002002F07F02212A05D1B4
:204380000B2803D1024A00201360704702207047440C0020431E402B034B28BF402018813D
:2043A000024B1860704700BFA8010020B4010020014B1860704700BF500C002010B502287F
:2043C00014BF0020022000230C225A43064901338C18E47904F00204844204BF00248C50D3
:2043E000082BF1D110BD00BF580D002008B5054B002202201A60FFF7E1FFBDE80840032006
:20440000FFF7DCBF440C002070B50C4629B31449144A0B6812680D469A1AD2B2C2F1FF0261
:20442000944201D9BAB11446002291B2A14202F1010205D2465C0C49CE540133DBB2F4E73D
:204440002B600A4B1A781206FBD51B781B0604D5FFF7F4FE01E0104670BD204670BD00BFD7
:20446000540C00204C0C0020580C0020480C0020A0F8411000F052BB026C6FF317220264F7
:2044800000F04CBB90F84D300BB900F047BB70470123013903FA01F1D0F841300AB10B4324
:2044A00001E023EA0103C0F84130FFF7EBBF40F2FF32914228BF114690F8452010B502F029
:2044C0000F0201F00F0442EA041280F8452090F84620C1F3051122F03F02114380F846107B
:2044E000BDE81040FFF7CEBF10B540F2FF32914228BF114690F8462001F0030402F03F02F2
:2045000042EA8412C1F3870180F8462080F84710BDE81040FFF7B6BF10B500210446062238
:204520004B3004F048FA002384F8493004F10800BDE8104000F0F2BA38B503680446DB683F
:204540000D46984728B1236820461B6929469847012038BD0023137090F8613073B190F80C
:204560006030002B18BF013090F851309B0705D5A1F16103192B18D82039C9B2080608D40B
:204580000D4B585C030616D50223137000F07F007047872902D97831C8B27047012380390B
:2045A00003FA01F1002011707047A1F14103192BE4D82031E1E77047A49C000813B50DF100
:2045C00007020446FFF7C6FF18B99DF80700B0B921E00023E21892F84B2082420FD001330D
:2045E000062BF7D10023E21892F84B1011B982F84B0004E00133062BF5D100200BE094F88B
:2046000049309DF8072004F10800134384F8493000F084FA012002B010BD13B50DF1070240
:204620000446FFF797FF68B10023E21892F84B10814203D1002382F84B3006E00133062B8F
:20464000F3D102E09DF8070060B194F849309DF8072004F1080023EA020384F8493000F052
:204660005DFA012002B010BD38B50025044680F8435080F8445080F8455080F8401080F883
:20468000421000F04BFA84F8405084F8425084F8435084F8445084F845502046BDE83840C6
:2046A00000F03CBA30B590F8405080F8431080F8425080F8442080F84530BDE8304000F074
:2046C0002DBA90F840208A420CD0002280F8401080F8421080F8432080F8442080F845201B
:2046E00000F01CBA704790F840301943FFF7E9BF90F8403023EA0101FFF7E3BF0022026028
:204700004260826080F874208281C28102677047016070474160704781607047F7B590F867
:20472000745004460DBB06462F46236F9F4205D2B36ABBB1B06D9847A0B916E0A368A08990
:20474000E189009394E80C00FFF78CFB04F11000216FFFF75DFA40B10125FFF7B9FB84F838
:20476000745002E001370436DFE7284603B0F0BD00230367704770B5056F0024AC420AD0C4
:2047800005F1160650F82660964207D100EB840636698E4202D1052C02D90DE00134EDE7D0
:2047A00000EB8406B362049BAC4231613364B26504D30135056701E0002070BD012070BDAD
:2047C0000148FFF79BBF00BFB80D002010B5084904460120FEF7A0FE06490220FEF79CFE88
:2047E0006069FEF77DFEA069FEF786FE012010BD8948000839480008FEF7D0BE07B501214D
:204800000DF10700FEF7D6FE01280CBF9DF807004FF0FF3003B05DF804FB07B501210DF1E9
:204820000700FEF7E3FE10B19DF8070001E04FF0FF3003B05DF804FB10B50B78222B20D162
:20484000104CFEF71BFF2378032B0DD8DFE803F00702070700280CBF0223012303E0002827
:204860000CBF032301232370FEF710FFB0F5966F07D12378022B04D100200A2100F0B6FD7F
:20488000FEE710BD300E00201D4B73B51A78022A34D103221A70FEF781FE03282ED9FEF76B
:2048A0007DFE0422011F01A8FEF7CAFE9DF80430312B23D19DF80530452B1FD19DF80630C3
:2048C000412B1BD19DF80730462B17D10D4C4FF0C2466FF0060544F001040B4B1846854699
:2048E0004FF001002146324604B402B401B401B401B401B401B401B4AE46704702B070BD63
:20490000300E00200D4900080008002008B500F0CAFB00F0D5FB0A2044F24C2100F0DCFBED
:2049200000F0D4FB034B18460138FDD8BDE8084000F098BDFF340C0007B5002302460093D3
:204940000349044B0448FFF716FF03B05DF804FB30000020CD470008B80D002070B50E4694
:2049600015460024AC4205D23019291BFEF73EFE0444F7E7204670BD13B50446FEF70EFE69
:2049800030B120460DF107010122FFF7E7FFF5E702B010BD08B5064B1B681B7B052B05D143
:2049A000FEF76CFE003018BF012008BD002008BD3806002070B50E461546FFF7EBFF48B1BB
:2049C00046B10024AC4205D23019291BFEF7B2FD0444F7E7002070BD07B502AB03F8011DD1
:2049E00019460122FFF7E6FF002003B05DF804FB38B5054608460C4604F0B2F8214602460E
:204A00002846FFF7D7FF002038BD10B504464068FFF7C0FC2269A3693AB9802213E05A79EC
:204A20001A710AB119680A709B6B002BF7D104F10C0010E0997949B159791971197909B197
:204A4000186801709B6B002BF4D103E0511C1A71CAB2F3E7A068FFF7ABFC012010BD0000AB
:204A600007B50023024600930349044B0448FFF782FE03B05DF804FB7C0100200B4A00081E
:204A8000B80D00200AB9037843B300238B63836923B9816106E09A6B1AB113468B42FAD19B
:204AA0001CE0996382681AB901F11403836006E093680BB11A46FBE701F11403936001F188
:204AC00020029A6001F12C038B62002381F8343081F8353081F8363081F837307047000058
:204AE0002DE9F041457804460E46174698468DB90948FFF73DFEC4F80C8027616561204615
:204B0000FFF7AEFF3046FFF717FFBDE8F0410248FFF704BEBDE8F081B80D002038B5048923
:204B2000056834B128462146FFF76EFC241A0544F7E720462146BDE83840FFF765BC03463F
:204B4000F0B5DD6800200A4698615861586218621863D86255B398791E8A4FF0FF34A8B9CC
:204B6000B04211D2611C11D12F5C852F04D1441CB44228BF4FF0FF3407F00307032F16BF36
:204B800001300530C019EBE70121997199799D6109B15E610AE0191D596201215C6119621A
:204BA0006118E4430D4426441D63DE62D86B1946BDE8F040FFF766BFF8B5069E04469DF818
:204BC0001C509DF82070C16322B11168C1605168016101E0C260028225B901332360731EEB
:204BE000238101E02360268120680021228903F0E2FE65712EB125B11FB923681D70A7714C
:204C000001E00123A37120460021FFF798FF2046F8BD000013B5114C0322D4F8C00094F8EA
:204C2000CC1000F099FB94F8CC204FF4803101FA02F2D4F8C00003681A6100230193019BF4
:204C4000B3F5007F02D2019B0133F7E794F8CC10042200F081FB02B010BD00BF709D00085E
:204C600001498D460149084700500020714C000808B5124B124A1968914201D0002301E0AA
:204C8000104B07E01048D4188442F9D2C858D0500433F7E70D4A934203D2002243F8042B1B
:204CA000F8E703F051FE00200146024602F05EF8074B0BB103F034FEFEE700BF24A2000837
:204CC000000000203807002038070020E81100202189000808B50D4B1A680AB90C4A1A6001
:204CE0001B680C4AD21A824204DB09494242591A914206DA03F00EFE0C2303604FF0FF3051
:204D000008BD024A18441060184608BD340E0020E811002038E90028FEE702F041B80000FF
:204D20000B4B10B5196809220A230A4801F062FF094B022219680948032301F05BFFBDE87B
:204D40001040074B074819681A221B2301F052BF70040020380E002074040020500E002055
:204D600078040020680E002010B5044600F080F9034B20461978BDE8104000F015B900BFD2
:204D8000B4020020F8B50446056800F0A5FC22680023510101F184410B60802129600121DB
:204DA000A9622B61EB606379696113B18B4203D02BE04FF400436B644FF6FF73D362002596
:204DC0006E1CF7B22046394600F090FCD0B1236848F6FF7103F1340242F8251018336D1024
:204DE00017F0010F53F8252014BF6FF0FF016FF47F4101EA020214BF68214FF4D0410A43CB
:204E000043F82520042E3546DAD1216801224B01490103F1844301F18441C3F880220A603F
:204E2000F8BD000038B5274B274C1A68012042F010021A6000F06EFA0025002000F036FBCC
:204E400065602368182023F40023236000F03BFB102000F038FB00F043F8A560102000F044
:204E600025FB102000F03DFB0028FAD000F039F8164800F043FB182000F018FB182000F0B8
:204E800030FB0028FAD0022000F000FB0021104800F0D0FA4BF67F3000F096FB00F039F823
:204EA0000C4B188800F0D2F80B4800F0D3F80B4800F0FEFBFFF7AEFE00F02DF8FFF72DFF1E
:204EC00038BD00BF0020024000100240B802002000200008B6020020694D0008854D0008F8
:204EE000704708B50020014600F046FB01204FF4806100F041FB0021022000F03DFB2D207D
:204F000000F04AFBBDE8084003204FF4800100F033BB00F009BA00F047BA00000000000006
:204F2000012007E0022005E0032003E0042001E00520FFE70D4A0121116072B60C4A0021C3
:204F40001160074902B4084902B486B005498E46704700BFAFF30080AFF30080AFF300809F
:204F600000000061F9FFFFFF1D6B000814ED00E010E000E0AFF30080AFF30080AFF3008033
:204F8000FEE710B50446007900F0C4FA2079BDE8104000F0D7BA03689A6822F4602242F4AC
:204FA0008012114399607047002370B51A461C46072B4FEA430503DCEE1801FA06F634434B
:204FC0001D4401FA05F501330A2B42EA0502EFD10368DC601A6170BD38B5124D2A68136877
:204FE0001C68A10706D5196821F002011960936803B19847620708D52B681A681B691168B6
:2050000021F00401116003B19847E30708D52B681A68DB68116821F00101116003B19847C7
:2050200038BD00BFE4020020036801225B0103F1844303F58673191F1A6018680028FCD1F9
:2050400043F8042C0B68002BFCD170470146042000F092BA044B10B504461868A047034B09
:205060001868A04710BD00BFE4020020E002002010B50446FFF785FF20464FF46021FFF78C
:205080008AFF2368012103F1404308335A015B0102F1844203F18443116520461960BDE803
:2050A0001040FFF7C1BF08B5142000F033FA042000F030FABDE80840042000F043BA0000E0
:2050C000014B01221A60704720000E42014B00221A60704720000E42431E092B06D88000BE
:2050E00000F1804000F5D84000B10160704738B550F8313004464D1E03B19847AA0001217F
:2051000001FA02F223685A6038BD0000024B01211868FFF7ECBF00BF28030020024B02215C
:205120001868FFF7E4BF00BF28030020024B03211868FFF7DCBF00BF28030020024B04214E
:205140001868FFF7D4BF00BF28030020024B05211868FFF7CCBF00BF28030020024B06214A
:205160001868FFF7C4BF00BF28030020024B07211868FFF7BCBF00BF2803002038B5044685
:20518000274D9DF8100045F83420012805EBC4056B6004F5022512D00AD3022814D1AB001F
:2051A00003F184430122C3F80021C3F880210BE0AB0003F184430122C3F8002104E0AB00FA
:2051C00003F18443C3F880012046AD0000F096F805F1844501232B600F2C1FD8DFE804F0EC
:2051E000080A0C0F1215151515151A1A1A1A1A1A40220CE080220AE04FF4807207E04FF432
:20520000007204E04FF4806201E04FF40002054B1A6038BD034B4FF480725A6038BD00BF3D
:20522000800E002000E100E007B500930023FFF7A5FF03B05DF804FB01F0030189000F233C
:205240008B408A4010B5046824EA03031343036010BD0000084A10B552F83030044653B1DF
:2052600002EBC00250689847012303FA04F4034B5C6100BF00BF10BD800E00200004014086
:20528000104B2DE9F047104DD3F8149004468A4605EBC0050026984654450CD80127A7403B
:2052A00017EA090F04D02B6813B1686898473E4301340835F0E7C8F8146000BF00BFBDE8DA
:2052C000F08700BF00040140800E00200020FFF7C1BF0120FFF7BEBF0220FFF7BBBF0320C6
:2052E000FFF7B8BF0420FFF7B5BF05200921FFF7C7BF0A200F21FFF7C3BF000003460A467D
:2053000000F0FC01024808441946FFF795BF00BF08000140034B1A6822F0070210431860A3
:20532000704700BF0020024008B5074801F071FE064801F06EFE064801F06BFEBDE80840E9
:20534000044801F066BE00BF2C030020340300203C0300204403002070B501F00704A400FC
:205360000F25A5400368C80853F82060092A26EA050514BF1646082606FA04F4082A44EA0C
:20538000050443F8204006D1012000FA01F1DA6822EA010106E0092A05D1012000FA01F139
:2053A000DA681143D96070BD08B5032000F0B2F8BDE80840032000F0C5B80000014801F0C0
:2053C00039BE00BF4C030020014801F033BE00BF84030020014802F019B800BF4C030020DD
:2053E000014802F013B800BF84030020064B45F255521A604CF6CC42586099601A604AF6DD
:20540000AA221A60704700BF0030004000284FEA011105DA064B00F00F00C9B2195470471F
:2054200000F16040C9B200F5614080F80013704714ED00E021F0604138B521F07F01084B24
:205440000843986000241D4660B20F210134FFF7DDFF2B2CF8D1F02385F8233038BD00BF82
:2054600000ED00E0044A054BD16801F4E0610B43D360BFF34F8FFEE700ED00E00400FA058C
:20548000014B13F81000704788A00008064B5A6822F0030202435A6080005A6802F00C0253
:2054A0008242FAD1704700BF00100240030A0121C0B201FA00F003F1804303F504331A68A1
:2054C000104318607047030A0121C0B201FA00F003F1804303F504331A6822EA00001860D2
:2054E0007047030A0222C0B202FA00F003F1804303F504331B68184070470000044B05C8D2
:205500005968126821F4741102430A435A6070470010024010B50446FFF7B2FF074B53F80E
:205520002020074B03EB4404637803EBC2039B0003F1844301221A6010BD00BFBC030020B7
:2055400088A0000810B50446FFF79AFF084B53F82020084B03EB4404637803EBC2039B00ED
:2055600003F1844301221A6000221A6010BD00BFC803002088A0000810B5054B054C5A6868
:2055800054F8200022EA00021143596010BD00BF00100240E4A0000810B50446FFF770FFA6
:2055A000074B53F82020074B03EB4404637803EBC2039B0003F1844300221A6010BD00BF7A
:2055C000D003002088A00008024B072258601A60704700BF10E000E008B5044B1A680132F9
:2055E0001A60034B1B6803B1984708BDA0110020000F002011F0010F70B542EA03030CBFD5
:205600000825002503FA05F5006801F1FF3400F11800C4F3400450F8241014BF6FF0FF06FD
:205620006FF47F463140294340F8241070BDF8B507680546FB683E691E4016F0400403D0E0
:20564000046A0CB1A0474024F30604D5AB6913B1984744F01004300704D56B6913B198477C
:2056600044F00804710704D52B6913B1984744F00404B20704D5EB6813B1984744F0020464
:20568000F30704D5AB6813B1984744F00104E4433C61F8BD0368013903F140432033DB0085
:2056A00003EB8101890001F1844101230B60704710B504460448A0470448A0470448A0474C
:2056C0000448A04710BD00BF240400204C040020DC0300200004002010B504460079FFF7B2
:2056E00019FF2079BDE81040FFF72CBF03791E2B10D9212B0ED0202B0ED9222B01D0252BAB
:2057000004D102298CBF0020012070474B1E584258417047012070470020704703680022B7
:2057200003F140430C3301EBC3039B0003F1844302311A6040F82120704738B505460C4644
:2057400013460022FFF756FF28462146BDE83840FFF7A0BF38B543790446022B0D463ED0BB
:20576000042A3CD8DFE802F00312202A3600FFF7D5FF2368013D03F140432033DB0003EB73
:2057800085039B0003F18443002221E00368002203F140430C3301EBC3039B0003F18443BD
:2057A0001A606022082301E010220023FFF722FF20462946BDE83840FFF76CBF03684FF2B6
:2057C000F1129A6103229A605B0103F1844301221A6038BD0122BDE83840FFF7AEBF38BD6B
:2057E00010B5074B1C68E16822690A40120605D55B6A1BB198476FF08003236110BD00BF9C
:205800002404002010B5074B1C68E16822690A40D20705D59B681BB198476FF0010323613F
:2058200010BD00BF24040020F8B50B4F3D68EB682E691E4016F0400403D03C6A0CB1A04739
:205840004024B30604D5FB6913B1984744F02004E4432C61F8BD00BF24040020F8B5124E76
:205860003768FB683D691D4015F0100403D0B4690CB1A0471024290704D5736913B19847BA
:2058800044F008046A0704D5336913B1984744F00404AB0704D5F36813B1984744F0020440
:2058A000E4433C61F8BD00BF240400200148FFF7BEBE00BF4C0400200148FFF7B8BE00BF0A
:2058C000DC0300200148FFF7B2BE00BF00040020D36870B59B0638D513689E0635D5136885
:2058E0009D0702D41368DC0701D553682DE05568C4888388A4B201349BB29C42EDB204685D
:2059000008D0C6880389B6B29BB29E420FD183889BB263B983889BB2E35C86880389B6B253
:205920009BB29E4235D0838801339BB28380C3889BB2E554C4880389A4B29BB29C4217BFA6
:20594000C388002301339BB2C380D368180622D513681B061FD58888CB8880B29BB2984279
:2059600012D088880B6880B2185C8C880B89A4B29BB29C4218BF8B88C0B21ABF01339BB23D
:2059800000238B80506070BDD36823F08003D36070BD0023CAE770BD02480349034AFFF7F1
:2059A00097BF00BF100F0020040F00200038014002480349034AFFF78BBF00BF1C0F0020BA
:2059C000340F00200044004002480349034AFFF77FBF00BF280F0020400F002000480040BC
:2059E000294B072818BF18701A78052A49D8DFE802F003131E222A35244A4FF6FB71106CBA
:205A0000014011644FF43F41116406221A70204B1B685A7B1A7370471C4A4FF6FB71106C4C
:205A2000014011644FF43F41116404222AE002225A70032226E05A78013AD2B25A705B7801
:205A40000BBB04221BE0114A116C89B241F01001116405221A700A225A7070475A78013A2A
:205A6000D2B25A705B7873B9084A4FF6EF73116C0B401364064B1B685A7B1A730622024BF6
:205A800000E006221A707047A8110020005C00403806002070B50446807B0D461646FFF7DB
:205AA00039FD084A084B09491A60094B09480B600949656008600221A6601B6811729847A2
:205AC00070BD00BFB8110020D8110020B011002054060020A4060020D4110020F8B56C4D58
:205AE0006C4B2A685C6C1268A4B202F48062224206D06FF480625A64674B1B685B689847D9
:205B00002B681B6823409F0403D5624A6FF400515164DE0406D55F4B6FF4C0525A640020C2
:205B2000FFF75EFF2A681168214008050FD5594B186C80B240F0080640F00C001E641864E3
:205B4000107B5073032010736FF4C0525A648B0503D5504B6FF400725A64CF0506D54D4B41
:205B60006FF480725A640720FFF73AFF2B681B6803F40043234200F08980464B5A6C1104A2
:205B800040F184806FF4004112F00F06596458D1196848F6800008400028EED088B23F4CFD
:205BA00000F4405525803E4D00F0300028801868D60620F4804020F0700040F4004040F010
:205BC000800080F400501860186820F4E04020F0400040F4004040F0800080F020001860D9
:205BE00001D5080607D5196848F60F720A401A6000F08EFE0BE0186840F68F7202401A6007
:205C00000A0502D500F09CFC01E000F001FE214B22881968288821F4804121F0700141F472
:205C2000004141F08001514019601A6822F4E04222F0400242F4004242F0800242401A6031
:205C4000F8BDB40004F1804404F5B84427683B040CD5226840F68F7313402A68236092685A
:205C600006F18043013B52F823309847380684D5226848F60F73134023602B6806F18046AB
:205C80005B68013E53F82630984776E7F8BD00BF38060020005C0040B0110020A411002001
:205CA000A6110020800000F1804000F5B840036823F4804323F0700343F4004343F08003F4
:205CC000594001607047000018B9034B07221B681A820248704700BFD81100209C06002021
:205CE00037B5114B1A681D46127802F07F02212A01D0022016E0A0F12003012B0B4B0C4CB8
:205D00001B6888BF002423B102A901F8010D02209847002CEDD02B68002528469C615D8223
:205D2000A047284603B030BDD81100205C110020C95C000813B5104B1B681A7802F07F0200
:205D4000212A14D1022806D0222806D19A780B4B02F003021A70002400E00224084B1B6809
:205D600033B102A901F8010D0220984700E00224204602B010BD00BFD81100204C0F00205E
:205D80005C11002021B9022834BF00200220704702207047044B1B689B7A1BB1034B052285
:205DA0001B681A73704700BFD811002038060020024B04221B681A73704700BF380600209F
:205DC000054B1B689B78032B04D8044901EBC30100F088BB00207047D81100208406002019
:205DE000014900F07FBB00BF4C060020014900F079BB00BFC80600200C4B00221B680121C5
:205E00009A720B4B4FF4E05019640A4909681A645A6418644FF43F405A6408601864064BFF
:205E20004FF4801018600A73704700BFD8110020005C00403806002000E100E02049214B8B
:205E40000A681B6870B59B1A13F0FF030E461E4905D10A78013AD2B20A70FAB170BD012029
:205E6000087000211948402B28BF40230C46184D11F0010FAD5C01F10101EDB21CBF44EA06
:205E80000525056002F101020CBF2C4604309942D2B2ECD3D90748BF046032600D4A0E4963
:205EA000106D40000B50536823F4E04323F0400343F4004343F0800383F03003536070BDC9
:205EC000641100205010002054110020806100404D0F0020005C0040146000402DE9F843EA
:205EE000494B4A4C1B6800254FF0C0089D7283F809802565236848F68F16334043F40073A1
:205F00002360236848F2800723F4E04323F040033B4383F010032360226D3D4B52004FF0F3
:205F2000400943F80290236D80225B0003F1804303F5C0431A602368284623F4E24323F04A
:205F400070031B041B0C2360324B1B6893F82C1000F0E6F828464FF44051FFF7A3FEA3688C
:205F60000220334043F4C063A360226D2A4B520013444FF480721A60A368294623F4E0431F
:205F800023F040033B4383F02003A360FFF78AFEE36803203340E360226D204B520013444F
:205FA0004FF488721A60494600F0BAF803204FF44051FFF777FE636801201E406660226DF8
:205FC000174B520043F802806368294623F4E04323F040033B4383F020036360FFF762FE59
:205FE000104B01221B6828461A7300F075FC0E4BFF221D600D4B1D600D4B1D600D4B1D60CE
:206000000D4B1A70BDE8F883D8110020005C004008600040B01100202060004038600040B8
:206020001060004038060020601100205811002050100020641100205411002070B50C4627
:2060400011B31249124A0B6812680D469A1AD2B2C2F1FF02944201D9A2B11446002291B2D7
:20606000A14202F1010205D2465C0A49CE540133DBB2F4E72B60084B1B781B0604D5FFF75C
:20608000DDFE01E0104670BD204670BD50100020641100204D0F002054110020034B18684A
:2060A000034B1B68C01AC0B2704700BF60110020581100200A4B10B51A680A4B1B689B1A0A
:2060C000DBB2994228BF194600238B4206D0064CA45C0132C454D2B20133F6E7184610BDEF
:2060E00058110020601100205410002010B5FFF7E1FF094A044613680344DBB21360074AB7
:206100001268D31ADBB2402B04D803204FF44051FFF7C8FD204610BD581100206011002045
:20612000104B3E291B6D03EBC0000F4B4FEA400003440ED94A09C80608BF02F1FF32C1F3A6
:20614000090108BF92B241F4004141EA82221A6070474A08C80748BF013241EA8221196012
:20616000704700BF005C00400C60004010B5064C18B9236801221A8210BD044B1B681B680D
:20618000984720680A3010BDD8110020D411002010B5064C18B9236801221A8210BD044B35
:2061A0001B689B68984720680C3010BDD8110020D411002010B5204B18B91B6802221A8297
:2061C00010BD1E4A1968002010800C78134614F07F040DD14A7A910644BF0221197012F00B
:2061E000400F1A7814BF22F0010242F0010214E0012C1FD0022C1ED1097901F00F0292005E
:2062000002F1804202F5B84211F0800F126806D002F03002102A07D101221A7004E002F43B
:206220004052B2F5805FF6E7054B1B681B699847024810BD104610BDD8110020AA11002015
:20624000D4110020234A2DE9F84314689046238A267A214FA3B9042E12D120490A78012AE5
:206260000AD11F4A10681F4A80B202445200136030223A800B7027E010233B80072623E010
:20628000A58AAB428CBF022604269D4228BF1D462846A36998478146002000F0CFFB2A46B2
:2062A0000146484600F063FB2946002000F0E2FB238A4FF440525B1B2382638A1D44302321
:2062C0003B80094B65821A80D8F800301E72BDE8F88300BFD8110020A61100206811002046
:2062E000505C004002300020A411002010B50A4B0A491B6849789A7891420AD3D97841B9CD
:206300009C8834B99A72064B1B685B689847204610BD022010BD00BFD8110020D00600200A
:20632000D411002038B50E4A0E4C12682368926918799978904723689A7A7AB170B95A797A
:2063400062B9DD7855B9084B1B68DB689847236828461A79DA729A781A7338BD022038BD44
:20636000B0110020D8110020D411002038B52F4B1B68187810F07F0004D15A7A22F0200258
:206380005A7238BD02284ED15A88002A4CD15A79002A49D11A79264D22F08000840004F1A2
:2063A000804101F5B84109682D7812F0800F14BF01F0300101F44051A84234D2002932D0F0
:2063C0009B7A83B304F1804404F5B844120623680CD503F03003102B1FD1C4B2204600F023
:2063E0001CFB2046302100F0F3FA16E003F44053B3F5805F11D128B90E4B93F82C1000F018
:2064000047FB01E000F0F9FA236823F4804323F070039BB283F440532360074B1B685B6918
:206420009847002038BD022038BD00BFD8110020D006002054060020D411002038B51D4BBF
:206440001D4D19682D780A7922F08004A30003F1804000F5B840006812F0800F14BF00F093
:20646000300000F44050AC4222D24C8804BBF8B1897AE9B103F1804303F5B84312F0800F72
:206480001A6807D022F4E04222F0400292B282F0100206E022F4804222F0700292B282F453
:2064A00080521A60054B1B689B699847002038BD022038BDD8110020D0060020D4110020AA
:2064C00008B5064B1B685A7A42F020025A72044B1B68DB699847002008BD00BFD811002095
:2064E000D4110020054B1A68538A18B98988CB1A1382704708681844704700BFD81100208A
:2065000008B50B4B002093F82C1000F0C1FA094B1B68187A082806D1074B4FF480521A8065
:20652000064B10221A80B0F109035842584108BD54060020D8110020A4110020A61100206A
:2065400073B5934E934B3268934D92B213445B001A682B68197A09290FD092B2520002F1A2
:20656000804202F5C042117819705178597091885980118999809289DA8001221A72DA8891
:206580005C78002A61D11A7812F07F023AD1092C02D1FFF7ABFE44E0052C0FD193F9022021
:2065A000002A01DA08234DE0DA78002AFAD19A88002AF7D19B7A002B37D0F3E7032C13D1EF
:2065C0009A78012A07D0754B20461B685B699847032828D135E09A88002AF4D15B7A98069E
:2065E000F1D5FFF76DFF1CE0012CECD19A78012AE9D19A88002AE6D15B7A9906E3D5FFF771
:20660000B5FE0EE0012A04D10B2CDCD1FFF78AFE07E0022AD7D1012CF1D0032CD3D1FFF705
:206620000DFF10B1CFE70028BCD132685C4B92B213445B0000221A605A4B30221A80062395
:2066400000E009232A681372CEE0062C13D11A78520677D1DA78514B012A02D11B68DB696E
:2066600067E0022A02D11B681B6A62E0032A69D11B685B6A5DE0002C3CD15988002961D129
:206680005A6822F0FF02B2F5003F5BD11A7812F07F0204D19B88002B00F0AA8052E0012A64
:2066A0000CD13E4A1879126892699047002849D12B689B7A002B40F09B8043E0022A41D1D7
:2066C0001B79394803F00F018A0002F1804202F5B8421268007813F0800F14BF02F03002F7
:2066E00002F4405281422DD213F0700F2AD1002A7ED127E0082C03D11B785B067AD021E00C
:206700000A2C1FD11A7802F07F02012A1AD19A7AC2B15988B1B95A6822F0FF02B2F5803F2B
:2067200010D11E4A1879126892699047002863D008E03BB12A68002454829361204698473F
:2067400020460AE0154B1A682B68126958789047032802D1104B1B6805E02B684FF6FF7149
:206760001A8A8A4201D1092203E0022800D012B908221A7238E093F9001000292EDAD98808
:20678000019101988242054810D9019A1A821EE0505C004004300020D8110020B011002075
:2067A00002300020A6110020D00600208A420ED2016891F82C108A4201D2002105E092FBAE
:2067C000F1F401FB142212B901210C4A1170026892F82C209A82FFF735FD05E003221A72C4
:2067E000074B4FF440521A80FFF78AFE02B070BD044B9FE7044B9DE7044B9BE76811002069
:20680000A4110020B56100086D61000891610008F8B52B4D2C68237A032B01D0052B41D11E
:20682000A369228AABB1A2B1A68A964228BF164630469847238A07469B1B2382638A0020EF
:206840003344638200F008F932460146384600F0A6F8238A53B11B4B00204FF440520146CD
:206860001A8000F007F9184B30221A80238AA28A9A4202D82B68032202E01BB12B68052290
:206880001A720CE02A6806211172104A1168104A89B20A44520013600B4B30221A802B68F4
:2068A0001B7A06E0072B03D10A4B1B68DB68984708232A681372BDE8F840FFF721BE00BFAA
:2068C000D8110020A4110020A6110020505C004002300020B011002030B50B4B1C780023F2
:2068E000A3420CD203F1805202F5B85291000D6848F68F722A401A430A600133F0E7034B3F
:2069000040F08000186030BDD00600204C5C004010B5134C23681A7A022A01D0042A04D141
