:020000040800F2
:2000000000280020F100000839010008390100083901000839010008390100080000000055
:200020000000000000000000000000003901000839010008000000003901000839010008B8
:20004000390100083901000839010008390100083901000839010008390100083901000890
:20006000390100083901000839010008390100083901000839010008390100083901000870
:2000800039010008390100083901000839010008F90400083901000839010008390100088D
:2000A000390100083901000839010008390100083901000839010008390100083901000830
:2000C000390100083901000839010008390100083901000839010008390100083901000810
:2000E0003901000839010008390100085FF808F1002100F004B80B4B5B58435004310A48FA
:200100000A4B42189A42FFF4F6AF094A00F003B8002342F8043B074B9A42FFF4F9AF00F069
:2001200045FA70473C19000800000020C8020020C80200200C030020FFF7FEBF7047704728
:20014000704703288CBF02200020704770470000034B1B689B7A13B1024B05221A60704773
:200160000403002010030020704770477047704770477047014B04221A6070471003002005
:2001800010B500F089FC214B214A1B68002412689C72D27920465A721E4A1F4B14601968DB
:2001A00021F4EC4121F0700141F4007189B21960196821F4E04121F0400189B281F010015B
:2001C00019601168154B89B20B445B0040211960136880229BB203F1005303F540535B0077
:2001E0001A6000F039FE0E4B20461B6893F8301000F08EFE204600F020FE0A4B0122204683
:20020000BDE810401A6001F025BB00BF04030020B8020020505C0040005C00400430002002
:20022000DC0200201003002038B5124B05461A681C46127802F07F02212A19D100F0C2FC34
:20024000B0B1681E042813D8DFE800F0030507120900094B04E0094B02E0094B00E0094BC9
:20026000226800242046936154829847204638BD022038BD040300200D0B0008350B0008C0
:20028000F50A0008DD0A0008014901F0E3B800BF44010020014901F0DDB800BFB802002005
:2002A000054B1B689B78072B04D8044901EBC30101F0D0B800207047040300209400002022
:2002C000014901F0C7B800BFE000002008B5084B1B681B7803F07F03212B06D100F072FC89
:2002E00000280CBF0220002008BD022008BD00BF0403002037B5194C0C20256800F080FBC2
:20030000284040F48035256015480C21002200F0BBF900230193019BB3F5007F02D2019BCD
:200320000133F7E70C20256800F06AFB284040F48025256000F076FB0A4BC2B218600A4BE0
:20034000C0F3072083F8292083F82A00074B5A71987100F0A7FE03B030BD00BF04080140F3
:2003600000080140C8020020EC00002029010020044B1A6892B242F00C021A60024B0322B3
:200380001A607047405C004010030020044B4FF6FB7219680A401A604FF43F421A607047E2
:2003A000405C004010B51E4C072818BF20702378052B32D8DFE803F003060A0E1621FFF7BF
:2003C000E5FF2AE0FFF7E2FF042327E002236370032323E06378013BDBB263706378F3B90B
:2003E000042217E00F4B1A6892B242F010021A60052323700A23637010BD6378013BDBB2D6
:20040000637063785BB9074A4FF6EF7311680B4013600622024B1A7010BD0623237010BD96
:20042000CE020020405C0040064B01221A60064A00200649186010604FF4E0520A801A60E2
:20044000704700BF405C0040445C004008030020044B01221A60044A0020106003221A60D6
:20046000704700BF405C0040445C0040FFF7F0BF07B514238DF8043000238DF805308DF897
:20048000063001A801238DF8073000F001FA03B05DF804FB10B500F0D1FA094B00241B6830
:2004A0009C72FFF7C1FF074B074A1C604FF43F431380064A1360FFF7DBFF054B1C6010BDD5
:2004C00004030020445C004008030020405C00401003002007B514238DF8043001A8002363
:2004E0008DF805308DF806308DF8073000F0D0F903B05DF804FB000070B5274D274C2B686C
:20050000274E9BB22380228833881340590505D54FF6FF332B60234B5B689847228833880F
:200520001A40920444BF4DF6FF722A6022881340DB0405D54EF6FF732B600020FFF732FF4C
:20054000228833881340180504D5FFF711FF4FF2FF732B60228833881A40910507D54FF633
:20056000FF522A60104A11780131C9B2117022881340DA0505D54FF6FF632B600720FFF78A
:2005800011FF2288338813401B0403D5BDE8704000F0DEBC70BD00BF445C0040CC02002003
:2005A00008030020000000200C03002037B500F0A7F800F0C9F800F0F7F8FFF79BFE00F037
:2005C00009F900F041F9012804464FF0000302D0022835D008E0009328480D2105224FF4B6
:2005E000A02300F065F844E0009324480D2105224FF4A02300F05CF8214800F0F9F828B106
:2006000000F04EF8041C18BF012432E01D4800F0EFF80028F4D101242BE000230093174808
:200620000D2101224FF4801300F042F800F0E8FB08B100F0EBFB0135052DEEDD002CECD1EB
:20064000104800F0D5F808B10E4804E00C4800F0CFF818B10A4800F063F90CE000900D2176
:20066000064805224FF4A02300F022F800F06CF901E00025E0E7002003B030BD00100140C2
:200680000050000800200008012303FA01F1D2F1010238BF002213019940016170470000E2
:2006A000024B1868C0F38000704700BF080C01402DE9F0479DF820A01446CAF10107FFB2FF
:2006C0003A46804689461E46FFF7DEFFB4B1354615B100BF013DFBE7404649465246FFF7A6
:2006E000D3FF354615B100BF013DFBE7404649463A46013CFFF7C8FFE4B2E7E7BDE8F087F9
:200700000D4B0E491A6842F001021A600C4A106801401160196821F0847121F480311960B3
:20072000196821F480211960136823F4FE031360044B00221A607047001002400000FFF818
:200740000410024008100240154B1A6842F001121A601A6812489203FBD5124A1221116007
:20076000A2F6FC72116841F4E81141F480611160016841F080710160196811F0407FFBD04D
:20078000116841F00201116011680907FCD59A6942F4FE729A61DA6942F40002DA617047D0
:2007A0000010024000200240094B1A6822F4706242F480621A604FF480221A61D3F80424E2
:2007C00022F4700242F48012C3F80424704700BF000C0140054B1A68D10703D41A6842F0EE
:2007E00001021A601A689207FCD5704700100240036803481840B0F100535842584170479B
:200800000000FE2F044A08B543681060026882F30888984708BD00BF08ED00E0084BDA6948
:2008200042F0C052DA61A3F5D0331A6842F480721A60044A10851A6822F480721A607047DC
:2008400000100240006C004038B50F4B44F24C21DA691D4642F0C052DA610C4A128D92B252
:200860008A4205D044F24D239A4203D0002409E0012400E002240020FFF7D0FFEB6923F0FE
:20088000C053EB61204638BD00100240006C0040184B30B5DB684478DB43C3F30223C3F1AC
:2008A000040204FA02F20F24DC40817803780C40144303F00301C9002401FF228C408A403E
:2008C00003F0FC0303F1604303F56143D3F8005325EA020122400A43C3F800230378012298
:2008E000590903F01F0302FA03F3034A42F8213030BD00BF00ED00E000E100E0074B4FF0EC
:20090000FF32C3F88020C3F88420C3F88021C3F88421042243F8F02C704700BF00E100E07C
:2009200010B5084B802204461A60FFF7D3FDFFF7E5FFFFF79BFDFFF7E3FE2046BDE81040D9
:20094000FFF760BF10200240024A034BDA6000BFFDE700BF0400FA0500ED00E00A4B10B5F0
:200960001A6802221A60094A1168144611F0010FF9D1906042221A60226812F00101FBD12E
:200980001960012010BD00BF102002400C20024037B58BB200930B0C01930E4B01221C68EA
:2009A0001A600D4A1568ED07FBD4019DADB245801568ED07FCD4009DADB205801568ED0731
:2009C000FCD424F001021A600068431A5842584103B030BD102002400C200240014B802250
:2009E0001A60704710200240034B044A1A6002F188321A60704700BF04200240230167456B
:200A00000728C8BF08380F23800003FA00F0C04370470000024B188800F50030800270473C
:200A2000E0F7FF1F044B1B88812B34BF4FF480604FF40060704700BFE0F7FF1F0D4A002385
:200A40000221137053709370D370117153710A4A0A4913600A4A13800A4A11600A4A01F591
:200A600088411160094A03211370094A1170094A137070471D0B0020180B0020000C00202A
:200A8000160B0020C4020020C00200201C0B0020D0020020230B002008B50E4B0E481979C8
:200AA0000022C9B20129026008D1022119711A70FFF724FFBDE80840FFF7DABC11F0FD0F5E
:200AC00006D0022119711A70BDE80840FFF73CBF08BD00BF1D0B0020180B002020B9034BF5
:200AE00001221B681A8270470148704704030020210B002020B9034B06221B681A82704765
:200B000001487047040300201D0B0020064B1B6830B9DA88598A511A1982044B1A807047BE
:200B20005B8A03481844704704030020160B002014030020084B30B91B68084A11885A8A45
:200B40008A1A1A8270470649064A1B68126808685B8A10441844704704030020160B0020DE
:200B6000C4020020180B002070B5124B124E1B783468022B04F100640CBF04F5A04404F514
:200B800000542046FFF7EAFE00250C4B1A8892B2954206DA0A4B6019E958FFF7F9FE04356F
:200BA000F3E731681A8892B20A44326000221A8070BD00BF1C0B0020180B0020160B002089
:200BC000140300202DE9F0418149824C0120087023790022DBB2022B22705AD108707E49F2
:200BE0000968487801282AD1C888002800F0C5807A48097B026001294FF0030222710BD06F
:200C000002291AD1764B1A70764A774B1A60FFF7E1FDFFF7E9FE0BE07449734A1160704A36
:200C20001370FFF7D7FDFFF7DFFE6E48FFF796FE44F24D20FFF7F2FDC2E00A2362E0022891
:200C400021D109232371CA88694B1A801888694A80B210801A884B8892B25A435F4B1A60B3
:200C60000B7B012B03D0022B09D15E4A00E05F4A5D4B1A60FFF7CEFE5F4B1860A0E00A2304
:200C8000237103239BE006283CD0032819D005283CE0032B0BD1504A12685278032A04D19E
:200CA00005232371FFF760FF8AE0052A2EE0042B09D152490878022803D1032362700B70E7
:200CC000052323717CE0052B14D1434B1A685378012B08D1D3880BB10323F2E70623237134
:200CE000FFF77CFE6CE0062B4DD0032B4BD0052B62D148E0062B0BD137490968497803292B
:200D000003D10823237122705AE0052954D1D8E7072BF6D0082BD4D0092B3CD12E4B1A6857
:200D20005378022B2DD1D08838B3314952880B882D4D9BB25343294A2F4E13602F68D2F872
:200D40000080B1F800C0474433681FFA8CFC67449F42284B03D80A8892B21A8019E0366802
:200D60002D681168721B521A92B21A801A8892B2824208D300221A8005E00A23237109237B
:200D80001DE0062B01D102239BE7032B01D0052B12D1092395E70A2B0ED10F4B1B685B782E
:200DA000032B01D10A238CE7052BFBD0042B03D102232371002302E00A2323710F23237051
:200DC0002078D0F1010038BF0020BDE8F08100BF230B00201D0B002004030020180B0020CD
:200DE0001C0B002000200008C402002000500008140B0020160B0020C0020020D0020020F2
:200E0000014B1878704700BF230B002000BFFDE7800000F1804000F5B8400368CA0623F41F
:200E2000E04323F040039BB248BF83F010038A0648BF83F0200303607047800000F18040E7
:200E400000F5B840036823F4804323F070039BB283F4405303607047800000F1804000F543
:200E6000B840036823F4E24323F070031B041B0C03607047800000F1804000F5B840036864
:200E80005B0406D5026848F68F73134043F4804303607047800000F1804000F5B84003687E
:200EA0005B0606D5026848F68F73134043F0400303607047064B1B689BB203EBC00000F1A9
:200EC000005000F540504000006880B2704700BF505C0040054B1B689BB203EBC000044BE4
:200EE00003445B00186880B2704700BF505C004004300020044B1B689BB203EBC000034BCD
:200F000003445B0019607047505C0040023000200D4B3E291B689BB203EBC0000B4B0344E7
:200F20004FEA430209D94B09C80604BF03F1FF339BB29B0243F4004304E04B08C90748BFD4
:200F400001339B0213607047505C00400630002070B54C4A4C4B116888B20C04188040F176
:200F6000908047F6FF7111601A88484C02F00F022270002A5FD1464C464D2268464E02F4E5
:200F800040522A80226802F030023280226822F4804222F0700292B282F4005222602268B7
:200FA00022F4E04222F0400292B282F0200222601B88D80602D52368190607D5226848F6A5
:200FC0000F731340236000F061FC12E01A0507D5226840F68F731340236000F069FA08E0AC
:200FE0001804B6D5226840F68F731340236000F0CDFB23682A8823F4804323F070039BB210
:20100000D10448BF83F480539504214A48BF83F4005313601368318823F4E04323F040039E
:201020009BB2CC0648BF83F01003880648BF83F02003136070BD930003F1804303F5B843FC
:201040001D68290409D5186840F68F7101401960124B013A53F8223098472B067FF579AFAF
:20106000217848F60F728B0003F1804303F5B8431868013902401A60094B53F8213098479E
:2010800067E770BD445C0040CC020020E0020020005C0040D2020020D4020020500000200F
:2010A0003400002008B5074A074B0849136002221A72074B074A1360074A1B6811609847CE
:2010C00008BD00BF04030020E40200206C00002000000020DC0200200003002010B5064C7B
:2010E00018B9236801221A8210BD044B1B681B68984720680A3010BD0403002000030020FB
:2011000010B5064C18B9236801221A8210BD044B1B689B68984720680C3010BD0403002064
:201120000003002010B5204B18B91B6802221A8210BD1E4A1968002010800C78134614F001
:201140007F040DD14A7A910644BF0221197012F0400F1A7814BF22F0010242F0010214E030
:20116000012C1FD0022C1ED1097901F00F02920002F1804202F5B84211F0800F126806D09A
:2011800002F03002102A07D101221A7004E002F44052B2F5805FF6E7054B1B681B69984767
:2011A000024810BD104610BD040300200A03002000030020234A2DE9F84314689046238AC1
:2011C000267A214FA3B9042E12D120490A78012A0AD11F4A10681F4A80B202445200136016
:2011E00030223A800B7027E010233B80072623E0A58AAB428CBF022604269D4228BF1D4661
:201200002846A369984781460020FFF753FE2A460146484600F068FB29460020FFF76AFEC2
:20122000238A4FF440525B1B2382638A1D4430233B80094B65821A80D8F800301E72BDE8AB
:20124000F88300BF04030020D4020020240B0020505C004002300020D202002010B50A4B9C
:201260000A491B6849789A7891420AD3D97841B99C8834B99A72064B1B685B6898472046D1
:2012800010BD022010BD00BF04030020900000200003002038B50E4A0E4C1268236892693A
:2012A00018799978904723689A7A7AB170B95A7962B9DD7855B9084B1B68DB6898472368EE
:2012C00028461A79DA729A781A7338BD022038BDDC020020040300200003002038B52F4B67
:2012E0001B68187810F07F0004D15A7A22F020025A7238BD02284ED15A88002A4CD15A7979
:20130000002A49D11A79264D22F08000840004F1804101F5B84109682D7812F0800F14BF4E
:2013200001F0300101F44051A84234D2002932D09B7A83B304F1804404F5B844120623684E
:201340000CD503F03003102B1FD1C4B22046FFF7A1FD20463021FFF75BFD16E003F4405366
:20136000B3F5805F11D128B90E4B93F83010FFF7CFFD01E0FFF77EFD236823F4804323F073
:2013800070039BB283F440532360074B1B685B699847002038BD022038BD00BF0403002076
:2013A00090000020000000200003002038B51D4B1D4D19682D780A7922F08004A30003F1A5
:2013C000804000F5B840006812F0800F14BF00F0300000F44050AC4222D24C8804BBF8B1D2
:2013E000897AE9B103F1804303F5B84312F0800F1A6807D022F4E04222F0400292B282F07A
:20140000100206E022F4804222F0700292B282F480521A60054B1B689B699847002038BDA7
:20142000022038BD04030020900000200003002008B5064B1B685A7A42F020025A72044BC7
:201440001B68DB699847002008BD00BF0403002000030020054B1A68538A18B98988CB1A82
:201460001382704708681844704700BF0403002008B50B4B002093F83010FFF749FD094B29
:201480001B68187A082806D1074B4FF480521A80064B10221A80B0F109035842584108BD6D
:2014A0000000002004030020D2020020D402002073B5964E964B3268964D92B213445B009B
:2014C0001A682B68197A09290FD092B2520002F1804202F5C0421178197051785970918852
:2014E0005980118999809289DA8001221A72DA885C78002A61D11A7812F07F023AD1092C55
:2015000002D1FFF7ABFE44E0052C0FD193F90220002A01DA08234DE0DA78002AFAD19A88B0
:20152000002AF7D19B7A002B37D0F3E7032C13D19A78012A07D0784B20461B685B69984722
:20154000032828D135E09A88002AF4D15B7A9806F1D5FFF76DFF1CE0012CECD19A78012A83
:20156000E9D19A88002AE6D15B7A9906E3D5FFF7B5FE0EE0012A04D10B2CDCD1FFF78AFE89
:2015800007E0022AD7D1012CF1D0032CD3D1FFF70DFF10B1CFE70028BCD132685F4B92B219
:2015A00013445B0000221A605D4B30221A80062300E009232A681372D4E0062C18D11A789C
:2015C00052067CD1DA78544B012A02D11B68DB696CE0022A02D11B681B6A67E0032A02D116
:2015E0001B685B6A62E0212A69D11B689B6A5DE0002C3CD15988002961D15A6822F0FF02CD
:20160000B2F5003F5BD11A7812F07F0204D19B88002B00F0AB8052E0012A0CD13E4A187912
:20162000126892699047002849D12B689B7A002B40F09C8043E0022A41D11B79394803F094
:201640000F018A0002F1804202F5B8421268007813F0800F14BF02F0300202F44052814284
:201660002DD213F0700F2AD1002A7FD127E0082C03D11B785B067BD021E00A2C1FD11A786D
:2016800002F07F02012A1AD19A7AC2B15988B1B95A6822F0FF02B2F5803F10D11E4A1879DA
:2016A000126892699047002864D008E03BB12A680024548293612046984720460AE0164B38
:2016C0001A682B68126958789047032802D1114B1B6805E02B684FF6FF711A8A8A4201D187
:2016E000092203E0022800D012B908221A7239E093F9001000292FDAD9880191019882422A
:20170000054811D9019A1A821FE000BF505C00400430002004030020DC02002002300020E6
:20172000D4020020900000208A420ED2016891F830108A4201D2002105E092FBF1F401FB12
:20174000142212B901210C4A1170026892F830209A82FFF72FFD05E003221A72074B4FF4E2
:2017600040521A80FFF784FE02B070BD044B9EE7044B9CE7044B9AE7240B0020D20200202D
:2017800025110008DD10000801110008F8B52B4D2C68237A032B01D0052B41D1A369228AAD
:2017A000ABB1A2B1A68A964228BF164630469847238A07469B1B2382638A0020334463821C
:2017C000FFF788FB32460146384600F0A5F8238A53B11B4B00204FF4405201461A80FFF7E3
:2017E00089FB184B30221A80238AA28A9A4202D82B68032202E01BB12B6805221A720CE0EF
:201800002A6806211172104A1168104A89B20A44520013600B4B30221A802B681B7A06E0C1
:20182000072B03D10A4B1B68DB68984708232A681372BDE8F840FFF71BBE00BF04030020D4
:20184000D2020020D4020020505C004002300020DC02002030B50B4B1C780023A3420CD2AD
:2018600003F1805202F5B85291000D6848F68F722A401A430A600133F0E7034B40F0800022
:20188000186030BD900000204C5C004010B5134C23681A7A022A01D0042A04D1FFF78AFC8C
:2018A00023681B7A13E0062A10D15A78052A09D11A78520606D19878FFF7CCFF084B1B68C1
:2018C0001B6A9847074B1B689B689847082322681372BDE81040FFF7CBBD00BF040300205A
:2018E00000030020DC02002030B501F10051013201F54051521049000023934200F102004F
:2019000009D010F8015C10F8024C44EA052421F823400133F1E730BD10B501F1005101322C
:2019200001F54051521049000023934205D051F8234020F813400133F7E710BD9504000811
:20194000810100083F0100084101000829020008CD020008430100088902000895020008E3
:20196000A1020008C102000800000000400000003D0100083D0100083D0100083D01000899
:201980003D0100083D0100083D0100083D0100083D0100083D0100083D0100083D01000817
:2019A0003D0100083D0100084D01000851010008690100086B0100086D0100086F01000817
:2019C00071010008730100087501000801010000E800002004000000320100201200000020
:2019E0004C0100201400000019010020100000006001002080000000E00100206C000000AE
:201A00004C0200206C0000001201000100000040AF1E030001020102030100002901002074
:201A2000090000000403090409022D0001010080320904000000FE0102040904000100FE7F
:201A40000102050904000200FE010206092103FF000008100110034C004C004D00200030DB
:201A60000030003300092103FF000008100112034C006500610066004C00610062007300AF
:201A8000CC0000201200000014034D00610070006C006500200030003000330080035300B9
:201AA00054004D00330032006400750069006E006F00200062006F006F0074006C006F0052
:201AC00061006400650072002000760031002E003000200020004500520052004F0052007B
:201AE0002E002000550070006C006F0061006400200074006F002000520041004D00200010
:201B00006E006F007400200073007500700070006F0072007400650064002E006C0353007E
:201B200054004D00330032006400750069006E006F00200062006F006F0074006C006F00D1
:201B400061006400650072002000760031002E00300020002000550070006C006F00610083
:201B60006400200074006F00200046006C0061007300680020003000780038003000300090
:201B800035003000300030006C03530054004D00330032006400750069006E006F00200079
:201BA00062006F006F0074006C006F0061006400650072002000760031002E0030002000B5
:201BC0002000550070006C006F0061006400200074006F00200046006C006100730068006F
:201BE0002000300078003800300030003200300030003000EC0000202D000000005000201A
:201C0000000C00200000000000000000000000000000000000000000000000000000000098
:201C20000000000000000000000000000000000000000000000000000000000000000000A4
:201C4000000000000000000000000000000000000000000000000000000000000000000084
:201C6000000000000000000000000000000000000000000000000000000000000000000064
:201C8000000000000000000000000000000000000000000000000000000000000000000044
:201CA000000000000000000000000000000000000000000000000000000000000000000024
:201CC000000000000000000000000000000000000000000000000000000000000000000004
:201CE0000000000000000000000000000000000000000000000000000000000000000000E4
:201D00000000000000000000000000000000000000000000000000000000000000000000C3
:201D20000000000000000000000000000000000000000000000000000000000000000000A3
:201D4000000000000000000000000000000000000000000000000000000000000000000083
:201D6000000000000000000000000000000000000000000000000000000000000000000063
:201D8000000000000000000000000000000000000000000000000000000000000000000043
:201DA000000000000000000000000000000000000000000000000000000000000000000023
:201DC000000000000000000000000000000000000000000000000000000000000000000003
:201DE0000000000000000000000000000000000000000000000000000000000000000000E3
:201E00000000000000000000000000000000000000000000000000000000000000000000C2
:201E20000000000000000000000000000000000000000000000000000000000000000000A2
:201E4000000000000000000000000000000000000000000000000000000000000000000082
:201E6000000000000000000000000000000000000000000000000000000000000000000062
:201E8000000000000000000000000000000000000000000000000000000000000000000042
:201EA000000000000000000000000000000000000000000000000000000000000000000022
:201EC000000000000000000000000000000000000000000000000000000000000000000002
:201EE0000000000000000000000000000000000000000000000000000000000000000000E2
:201F00000000000000000000000000000000000000000000000000000000000000000000C1
:201F20000000000000000000000000000000000000000000000000000000000000000000A1
:201F4000000000000000000000000000000000000000000000000000000000000000000081
:201F6000000000000000000000000000000000000000000000000000000000000000000061
:201F8000000000000000000000000000000000000000000000000000000000000000000041
:201FA000000000000000000000000000000000000000000000000000000000000000000021
:201FC000000000000000000000000000000000000000000000000000000000000000000001
:201FE0000000000000000000000000000000000000000000000000000000000000000000E1
:2020000000500020454A0008014D0008054D0008094D00080D4D0008114D0008614D00082D
:20202000614D0008614D0008614D0008614D0008614D0008614D0008614D000871530008DA
:20204000614D0008614D0008614D0008614D0008614D0008614D0008655000086B500008BC
:2020600071500008775000087D500008A54E0008B54E0008C54E0008D54E0008E54E00086C
:20208000F54E0008054F0008B94D0008614D000875580008614D0008614D000883500008B9
:2020A000795500089D550008C1550008F555000845560008515600085D5600085551000825
:2020C0006D5100086151000879510008614D0008614D00083157000849570008615700084A
:2020E0008B500008614D0008614D000810B5054C237833B9044B13B10448AFF3008001234F
:20210000237010BD500F00200000000040D8000808B5064B1BB106480649AFF300800648D9
:20212000036813B1054B03B1984708BD0000000040D80008540F0020500F002000000000A6
:2021400008B5094920F0004007F0CAF806F0A0FB03A3D3E9002305F091F806F0AFFE08BD6B
:20216000666666666666F63F00004842AFF3008090F900308B4205D0002300224360028154
:202180004281C360017070472DE9F743044647680846884606F09CFF0146384606F0ECFF95
:2021A000E16806F0E1FE0021064607F0A1F9B0B1304605F01FF82E49054607F08FF950B9D6
:2021C00028464FF0434107F07FF930B9284607F099F9C5B204E07F2502E0802500E00546CE
:2021E00068B206F075FF0146304606F0BBFE2389E06033B1984528BF9846C8EB0303238120
:202200001BE06689BEB1B04528BFB046C8EB0608404606F05DFF0146384606F0ADFF8146CC
:20222000304606F055FF0146484607F059F8A4F80A80606001E000236360237838465D435B
:2022400000218DF8045007F02BF948B9606800214FF0010507F024F900B90546EDB200E0A3
:2022600000259DF8040040EA052003B0BDE8F0830000FE4208B504F0D5FC003018BF01209C
:2022800008BD08B504F0CEFCD0F1010038BF002008BD000010B50024044B0421185D013459
:2022A00004F0F4FB082CF7D110BD00BF0800002038B5074C04F108056078002104F0E6FB7B
:2022C00014F8010F002104F0C3FCAC42F4D138BD2000002008B5FFF7EBFFFFF7DBFF002396
:2022E000074900225A5407495A5407495A540133082BF5D1BDE808404FF4FA7004F0D8BC73
:20230000CC0F0020C40F0020940F00202DE9F0410025384E0021384C705D04F099FC4FF4DC
:202320002F7004F0DAFC2078FFF7ABFF80466078FFF7A7FF0746A078FFF7A3FF800040EA1B
:202340004707E078FFF79DFF47EA0807FFB247EAC000C7B22079FFF794FF47EA0010C7B20E
:202360006079FFF78EFF47EA4010C7B2A079FFF788FF47EA8010C7B2E079FFF782FF47EA36
:20238000C010C4B20121705D04F062FC1B4BEA5C1E46A24206D05C55194B01221A70194AC7
:2023A00012685A800135082DB3D115480378D3B1144B1A684388D31A142B14D90023002175
:2023C0000A46B45C1C4104F00104944001322143082AC9B2F5D10C4AD1540133082BEED1C8
:2023E0000023037002E0012004F062FC0120BDE8F08100BF2100002008000020C40F0020A0
:20240000C00F0020A8190020CC0F002008B5FFF761FF024B00221A705A8008BDC00F002057
:2024200008B5302004F0FEFBC0B208BD70B502EBC102D6B2827C1D4604464F4B3AB106EBED
:20244000821233F812104D4B01229A5504E0027C06EB821233F812104FF6FF73994200F03B
:202460008980E9293ED006D8C12915D0E82925D085296DD10AE0F72958D002D8F6294BD04E
:2024800066E0F8295CD0F92955D061E02068012D036811D1DB6861E0012D07D120680368A1
:2024A000DB689847236883F8615070BD002D61D12068036880F861501B694FE0FFF7B0FF43
:2024C00001280CD1012D03D120680368DB6804E0002D4FD1206803681B6920213EE0A068AF
:2024E000092112E0FFF79CFF01280CD1012D03D120680368DB6804E0002D3BD120680368E1
:202500001B69B0212AE0A0680A212A1C18BF0122BDE8704001F0BCBE012D02D1E0686F2150
:2025200012E0E068BDE8704001F0A6BE012DF8D1E068702108E0012DF3D1E068E92103E0D8
:20254000012DEED1E068EA21BDE8704001F090BE012D05D12068C9B20368DB68984770BDE6
:2025600045B92068C9B203681B699847A37C0BB1024B9D5570BD00BFCEE80008F00F0020A9
:2025800070B50E4BA2B05B5C06461341DB070D46144611D50A2301FB033313440133009322
:2025A00007492A46234602A807F072FE3046294622460123FFF73AFF22B070BDCC0F002047
:2025C000CEE90008F0B50F4BA3B05B5C0746134113F001060D46144611D10A2201FB0222AD
:2025E00022440132009208492A46234602A807F04FFE3846294622463346FFF717FF23B0EB
:20260000F0BD00BFCC0F0020E1E900082DE9F84F8046FFF77BFE0024154B5FFA84F9E75C52
:20262000144B14F803B09A4697EA0B0B04D10134082CF1D1BDE8F88F0025012616EA0B0F73
:202640000ED03E42404649462A4602D0FFF798FF01E0FFF7B7FF1AF8043073400AF804307C
:202660000135EDB27600082DF6B2E7D1DFE700BFCC0F0020940F002010B50024044B0421DA
:20268000185D013404F002FA112CF7D110BD00BF1000002038B51E2004F01FFB0024254617
:2026A000154B185DFFF7E6FD80F00100C3B2A3400134112C45EA0305F2D110490B68AB427E
:2026C0000F4B05D001221A700E4A0D6012685A801B780B4A5BB10B4B18685388C31A052B53
:2026E00005D9094B096819600023137002E0012004F0DEFA012038BD100000206C0F002068
:2027000050100020A8190020900F002010B50446FFF7B2FFA06840F2FF1101F0C8FDA068DB
:2027200040F2FF1101F0E0FD024B00221A705A8010BD00BF5010002081422EBFC0EB01004E
:202740004042C1EB0000704710B51446FFF7F4FFA04228BF204610BD38B50B4B04461D687E
:20276000038913B94FF47A7308E0006829464FF47A72FFF7E9FF63681844430863604FF48D
:202780007A732560238138BDA819002008B5038953B1406830B106F097FC0146034806F066
:2027A0009FFD08BD014808BD002008BD00007A442DE9F0411E4B1F4D5A781F4C05F10C06A6
:2027C000013230465A70FFF7C7FF012104F11000FFF7CEFC2846FFF7D9FF07463046FFF7EE
:2027E000D5FF39460646384606F0C6FC31468046304606F0C1FC0146404606F0B5FB04F037
:20280000B9FE8046FFF79CFC414606F069FD80464146384606F0B0FC41466060304606F0AA
:20282000ABFC2D8A606125836583BDE8F08100BFBC0F0020341000209C0F00202DE9F041B3
:202840001E4B1F4D5A781F4C05F10C06013A30465A70FFF781FF4FF0FF3104F11000FFF703
:2028600087FC2846FFF792FF07463046FFF78EFF39460646384606F07FFC3146804630462D
:2028800006F07AFC0146404606F06EFB04F072FE8046FFF755FC414606F022FD8046414646
:2028A000384606F069FC41466060304606F064FC2D8A606125836583BDE8F081BC0F002023
:2028C000341000209C0F00202DE9F0411D4B1E4D1A781E4C013228461A70FFF73DFF012134
:2028E0002046FFF745FC2846FFF750FF074605F10C00FFF74BFF39460646384606F03CFC82
:2029000031468046304606F037FC0146404606F02BFB04F02FFE8046FFF712FC414606F08A
:20292000DFFC80464146384606F026FCAD886060258165813046414606F01EFC6061BDE8E5
:20294000F08100BFBC0F0020341000209C0F00202DE9F0411D4B1E4D1A781E4C013A28466E
:202960001A70FFF7F9FE4FF0FF312046FFF700FC2846FFF70BFF074605F10C00FFF706FF61
:2029800039460646384606F0F7FB31468046304606F0F2FB0146404606F0E6FA04F0EAFDF2
:2029A0008046FFF7CDFB414606F09AFC80464146384606F0E1FBAD886060258165813046EC
:2029C000414606F0D9FB6061BDE8F081BC0F0020341000209C0F002043780BB10123837027
:2029E00070470023437083708088C01A18BF012070470000A24B70B533F811104FF6FF73B1
:202A000099420446154600F05281EE2900F0BC8018D8872900F0418108D8812927D08229B2
:202A200000F03B81802940F0428136E1EB295ED002D8EA2942D070BDEC2972D0ED2900F06C
:202A4000898070BDF2291DD005D8F02900F0CB8040F2AF80DBE0F42900F0F780C0F0EB804C
:202A6000F52900F00481FA2900F0E58070BD012A02D10068036815E1002A40F018810068FC
:202A8000036811E1012A01D1A27470BD002A40F00E817C4EAB5D5BB12068A17C03687A4AFE
:202AA00005EB81111B6912F8111098470023AB550135402DEDD10023A37470BDFFF7B0FC79
:202AC00001280DD1012D03D120680368DB6805E0002D40F0EC80206803681B69DA21E4E0D3
:202AE000A068C5B10021BDE8704001F0FDBBFFF797FC01280DD1012D03D120680368DB6871
:202B000005E0002D40F0D380206803681B69D921CBE0A06815B940F2FF11E4E740F2FF31BF
:202B2000E1E7FFF77DFC01280DD1012D03D120680368DB6805E0002D40F0B98020680368B1
:202B40001B69D821B1E0A068C5B10021BDE8704001F0ADBBFFF764FC01280DD1012D03D1BB
:202B600020680368DB6805E0002D40F0A080206803681B69D72198E0A06815B940F2FF11BE
:202B8000E4E740F2FF31E1E7FFF74AFC01280DD1012D03D120680368DB6805E0002D40F083
:202BA0008680206803681B696A217EE0A068022112E0FFF735FC01280CD1012D03D12068DB
:202BC0000368DB6804E0002D71D1206803681B696B216AE0A06803212A1C18BF0122BDE896
:202BE000704001F055BBFFF71BFC01280CD1012D03D120680368DB6804E0002D57D1206818
:202C000003681B69752150E0A0680121E4E7FFF707FC01280CD1012D03D120680368DB68D3
:202C200004E0002D43D1206803681B6969213CE0A0680421D0E7012D02D1606801211AE089
:202C4000002D34D16068012123E0012A836903D15A7000229A8070BD9B781BB94068042183
:202C600001F002FCA069BDE87040FFF7BABE012A0CD140680221BDE8704001F034BC00BFD1
:202C8000ACE80008F00F0020CEE800087AB940680221BDE8704001F02BBC2068012DC9B25F
:202CA000036801D1DB6800E01B69984770BD70BD2DE9F8430646114FFFF7ECFC10493A6821
:202CC0000B68894692EA030816D00025012414EA080F0BD0D9F8002030462240294618BFFC
:202CE0000122FFF787FE3B6863403B600135EDB2112D4FEA4404EAD1BDE8F8834C1000206A
:202D0000900F0020F7B5054672B6344B017F1A89988A8A428CBFC1EB020200221A818842C3
:202D20002E4A84BFC1EB00009082A8694FF00003477898BF93822A4E838047B3294B7178CA
:202D40001A780A44D2B254B2022194FBF1F4E4B2C4EBC41102EB41021A70ACB1FFF73CFE11
:202D60000022114600233370737062B611B90AB9002C30D06342686849B252B25BB203B02C
:202D8000BDE8F04001F08EBB22462146EAE7164C2046FFF7F9F9297FADF8000004F1100082
:202DA000FFF7F2F9ADF80400C2B29DF801009DF80010234620B1002058611F835F83D8610A
:202DC0009DF8050028B10020002458611C835C83D8610024C6E703B0F0BD00BF3410002078
:202DE000BC0F0020BE0F00209C0F0020104A08B5104B11681868FF221960FFF7A5FC0E4B3B
:202E0000C0B2D8619B6980B29A8882428BBFC0EB0200002298809A800748FFF773FF06489B
:202E2000FFF746FFBDE808400348FFF7EFBB00BFA819002030100020700F002008B52820DB
:202E4000022103F023FE2920022103F01FFE2A20022103F01BFE2B20022103F017FE282088
:202E60000A49022203F0E0FD2A200949022203F0DBFD29200749022203F0D6FDBDE8084010
:202E80002B200549022203F0CFBD00BF51290008C92800083D280008B12700082DE9F04128
:202EA0006B4F8CB038466B4901F032FB38466A4901F030FB6949384601F02EFB642003F0BE
:202EC000D9FD674B002403600226092344608DE84800644B054602941A68634905F148032F
:202EE000083001F05BFD614B85F85A602B60A5F8586005F151034FF0010885F860605C4E15
:202F00006B6585F85B8085F861805020356003F0B1FD0D2214238DE80C00564B029405461C
:202F20001A68514900F1400301F038FD95F8403085F848402B640F2385F84530202385F8A6
:202F400046306FF07F0385F84730022385F84930082385F84A3085F84B4085F84C4085F85B
:202F60004D4085F844404820B56003F083FD05238DE80801404B029405461A683A4900F1CB
:202F8000410301F00BFD85F840404420756003F071FD032300930193384B02941A6805462A
:202FA000314900F1400301F0F9FC2B6C062064F317232B643368F56083F8614003F05AFD4A
:202FC0000470447084708480B0611C2034747474B474F47403F04EFD294944600346402265
:202FE0004FF47A70196098601C745A619A617361DB680790089305910A920B9205A9214ABC
:20300000DB23194806948DF8244001F05BFC1E4B97F874101A6801B9FEE7137B052BFAD160
:203020001348FFF7F3F91248FFF770FB1048FFF705FF7069154903F0ECFC0221302003F0CE
:2030400025FD4FF47A7003F033FE0CB0BDE8F081AC15002002EA00080EEA000816EA00084E
:2030600018F00008E4010020D40F0020A8EB0008700F0020E0010020E8010020C001002013
:20308000C8EB0008D0E70008380600201FEA00080C4A01231370402100235160D36053612E
:2030A00053701361084A00211381D36093821360064A516013815381D1605161138353835F
:2030C000D1617047D40F0020341000209C0F002008B51E49422207F005F81D4A0346917D9B
:2030E00090F82600014483F8261093F8360092F82210927A014483F8361093F83D109878B5
:203100000A4483F83D20134A9178014499709278997A1144997293F82D10114483F82D1083
:20312000997E1144997693F82210114483F8221093F823100A4483F82320074A12681A871F
:20314000064A1268A3F83F2008BD00BF2AEA00085C000020300000208000002084000020FB
:20316000064A00231360064A1360064A1360064A1360064BFF221A70704700BF6C12002010
:203180006411002060110020581000205510002007B5074B074A1B680092074A0749019254
:2031A00007484FF4807200F0C5FE03B05DF804FB6011002058100020551000206C11002096
:2031C0005C00002002F07F02212A13B514D199B9022805D0222805D1094A03F003031370C8
:2031E0000C4600E00224074B1B6833B102A901F8010D0220984700E00224204602B010BD20
:20320000541000206811002037B502F07F02212A05460C461AD1C9B9202807D021280BD199
:203220000C480721224600F0C3FD06E009480721224600F031FE00E00224074B1B6833B155
:2032400002A901F8015D0220984700E00224204603B030BD290000206811002037B51A4D2A
:203260001A4C2A6802AB43F8042D04F118004FF48072174900F02EFE019B164A2B6012687E
:203280009B1A154ADBB21268C2F58072934212D294F822309B0003F1804303F5B8431A680C
:2032A00022F4804222F0700242F4004242F0800282F440521A60094B1B6813B10120002127
:2032C000984703B030BD00BF6C1200205C0000205C10002064110020800000205C11002048
:2032E000034B002808BF40201881024B186070475C00002084000020002808BF402008B5F0
:2033000080B200F061FE024B1884024B186008BD5C00002080000020C20744BF034B19600A
:20332000830744BF024B1960704700BF5C1100206811002070B50C4629B31449144A0B681D
:2033400012680D469A1AD2B2C2F1FF02944201D9BAB11446002291B2A14202F1010205D22A
:20336000465C0C49CE540133DBB2F4E72B600A4B1A781206FBD51B781B0604D5FFF708FFB4
:2033800001E0104670BD204670BD00BF60110020581000206C11002055100020034B18686E
:2033A000034B1B68C01AC0B2704700BF6C120020641100200A4B10B51A680A4B1B689B1A1E
:2033C000DBB2994228BF194600238B4206D0064CA45C0132C454D2B20133F6E7184610BD1C
:2033E000641100206C1200205C10002008B5FFF7E1FF104A13680344DBB213600E4A12688D
:20340000D31ADBB2402B13D80C4B93F822309B0003F1804303F5B8431A6822F4804222F0F7
:20342000700242F4004242F0800282F440521A6008BD00BF641100206C1200205C00002039
:203440000B4B10B51B6819440A4BC9B21B685B1ADBB2934238BF1A460023934206D0064CD0
:20346000645C0131C454C9B20133F6E7184610BD641100206C1200205C100020024B1878EF
:2034800000F00100704700BF54100020014B1868704700BF29000020800000F1804000F590
:2034A000B840036823F4E04323F0400343F4004343F0800359400160704700000B4B1B685F
:2034C0005A8A20B90A4909888A1A1A8270470949096831B1D8889B8A134498429CBF01237A
:2034E0000B70054B186800B110447047E0190020301400209C12002028140020104B10B5FE
:203500001B685A8A60B90F4CD98824888C4238BF21468A423ABFC2EB01021A82188210BD1F
:203520000949096831B1D8889B8A134498429CBF01230B70054B186800B1104410BD00BFD5
:20354000E01900209A1200202C140020341400202DE9FF41164B1C68227802F01F03012BA9
:2035600021D1144B2179D3F800C0134BD3F800800023634517D058F82360376A8FB1B57899
:203580008D420ED836782E44B1420ADA491BE578A3780095A588C9B20195E4880294B847CF
:2035A00002E00133E5E7022004B0BDE8F08100BFE019002094120020081400202DE9F34119
:2035C000154B1C68227802F01F03012B1FD1134B2179D3F800C0124BD3F800800023634547
:2035E00015D058F82360776A7FB1B5788D420CD836782E44B14208DA491BE578A3780095BC
:20360000A488C9B20194B84702E00133E7E7022002B0BDE8F08100BFE01900209412002003
:203620000814002010B50B4B1B689B7A1BB10A4B05221B681A730024084B1B689C4208D291
:20364000074B1B6853F824305B6903B198470134F2E710BDE0190020380600209412002087
:203660000814002010B50024064B1B689C4208D2054B1B6853F824309B6903B1984701345B
:20368000F2E710BD9412002008140020024B04221B681A73704700BF38060020012906D823
:2036A000044B1B79834294BF0220002070470220704700BFA012002030B5134B05461B689B
:2036C0009A78124B1B7893421CD9114C04EBC2018B889BB954F83200C45C0E4A59002CB17C
:2036E000242B03D00A4454800133F5E78B1C0A49D8B210708880A84228BF2846BDE8304016
:2037000002F0BCBD002030BDE01900206801002048010020880000206C010020014902F0B5
:20372000ADBD00BF20010020014902F0A7BD00BF2801002038B5154B00221B6801219A7257
:20374000134B4FF4E050196412490C681A645A6418644FF43F405A64206018640E4B4FF47C
:203760008010186014460D460C4B1B689C4208D20B4B1B6853F82430DB6803B1984701347F
:20378000F2E72B6800221A7338BD00BFE0190020005C00403806002000E100E094120020C0
:2037A00008140020034B1B6D03EBC0004300024818447047005C0040046000408B4B2DE97D
:2037C000F74F1B688A4C0025C0229D725A722565226848F68F13134043F400732846236086
:2037E0001021FFF759FE226D824B5200134480221A60236D40215B0003F1804303F5C0432C
:203800001960226848F68F6313402360284602F053FB2368012523F4804323F0700343F4A9
:20382000004343F0800383F440532360AC0004F1804404F5B8442368E8B223F4804323F096
:20384000700343F4004343F0800323602368590406D5226848F68F73134043F480432360E5
:203860000021FFF719FE23685A0606D5226848F68F73134043F0400323600135082DD5D12D
:203880004FF000085C4B00201B68984580F0A1804FEA880B0746594B1B6853F80B305A7891
:2038A000974280F090809B6A0C2404FB0734A67AE17AB50005F1804505F5B8452A6848F68E
:2038C0008F1313404E4A01F0030132F81120DFF820A113432B60E37A296813F0040F48F650
:2038E0008F630CBF00224FF480720B4013432B6063684FEAC60903F14043A3F5C0434FEA6A
:20390000A30CE37A4FEA4C0C1FFA8CFC13F0080FDAF850202CF0010337D04A44520002F113
:20392000804202F5C0421360304620218DE80810FFF7B2FD9DE80810E27A12F0040F40D052
:20394000DAF8502025894A44520002F1804202F5C0421360DAF8503009F104026D081A4451
:2039600052000CEB050302F180429BB202F5C04223F0010313603046FFF714FF21890560E3
:203980004908304602F098FA1BE009F104094A44520002F1804202F5C0421360E37A5B071A
:2039A00003D43046218902F087FA2B6823F4804323F0700343F4004343F0800383F4405370
:2039C0002B60013767E71B6903B1984708F1010858E70C4B012218800B4B18800B4B1B68A5
:2039E0001A7303B0BDE8F04F02F042BEE0190020005C004008600040941200200814002052
:203A0000740100209A12002030140020380600202DE9F04F884B91B01860884B0122196033
:203A2000874B08911A700023864A87495A5087495A5004331C2BF7D10024C0210491A146E3
:203A4000A346A24608998C4200F0AA807A4B1B6853F8245003EB840205932B7809920A931E
:203A6000AB8885F802A04B44C82B01DD0020E0E0734B4FF000081878AB6A0A336A78904516
:203A80007FD20C2202FB08F20B925A78A3F10A06920644BF0BF10100C0B206960246072A7E
:203AA0006CD8099F0B9E3F68B96A07970E440D9600214FEA810CCDF830C00026A1423AD263
:203AC000079F97F801C0664535D2DDF814C00C9F5CF807704FF00C0CBF6A0CFB067797F88C
:203AE0000AC00E97944524D197F80BC00D9FCDF80CC0FF7ACCF3C00C0297C7F3C007BC45D3
:203B000000F09480DDF808C01CF0100F40F08E80039F17F0100F40F0898007F0070CCDF8CB
:203B200038C0DDF808C00CF00707DDF838C0BC457CD10136C2E7A14201D14645C5D30131E1
:203B4000A142B6D9049E069F710001F1804101F5C04143F8061CFE7A5FFA82FC770733F83C
:203B6000021C39D57C2931D8033121F00301049E314489B2B1F5007F049139D9304B187001
:203B800074E72F4BDDF828C018703148AB684844E2449847AB8801344B441FFA83F951E72A
:203BA0002C4A2D4B1168012019605168127A59601A7209F1090292B283F804A05A80274BC6
:203BC0009A80274B0BF101021A7032E03707CBD43F3121F03F01CAE73E2901D9360703D519
:203BE000013121F00101C2E71F3121F01F01BEE753F80A1C11B9134943F80A1C069F1A708A
:203C0000F97A53F80A6C11F0080F18BF0E4F4FFA8CF108BF0D4F01F1FF3C47F82C6008F14A
:203C200001080C338B45B8BF934627E70132D2B235E711B0BDE8F08F081400209412002054
:203C400090120020056700080C14002074120020A912002072EA0008A012002020010020F6
:203C60003001002030B5039D144C08B1208104E06FF0500020721E20607209B1618102E001
:203C80002420A072E1720E490E48002A08BF0A460D498A600022934208BF03460B618A81CF
:203CA0008A820A4B1DB903221A70257430BD8A8304221A70032323748D6130BD32010020F0
:203CC000A0EA00086CEA00084801002068010020F8B5294B03221C680C21204601F008FAB2
:203CE00023684FF080521A61244B1B6823B1DB00013B18460138FDD820460C21042201F0BA
:203D0000F7F9DFF8A8C01E4BBCF800201D4D1E4C1A800FCC0FC50FCC0FC594E80F001B4E77
:203D200085E80F000FCE1A4D0FC50FCE0FC5374657F820392B60174B174D1B88ACF8003051
:203D4000A4F1200C0FCDACE80F000FCDACE80F0095E80F0084E80F00104C0FCC0FC70FCCB5
:203D60000FC723680E4933600E4B0F4A1868BDE8F84001F05BBD00BFF8EE000844010020CE
:203D8000981200209813002054060020A40600207413002030010020ACEA00087CEA000846
:203DA0000C1400203806002074120020D0060020064B1860064B00201980064B1A60064BDA
:203DC000064A1B689A615882FFF778BB28140020301400209C120020E0190020BD34000872
:203DE000034600201BB11A689B681044FAE770472DE9F8431D4B80461C681D4B658A38B9D2
:203E00001868FFF7EDFF401B20824046BDE8F8831C6844B30026334608EB050293421DD2C5
:203E20002068C0B11F18BD4216D29D428CBFC3EB05010021BA429ABFC3EB0203C1EB0309AC
:203E4000C1EB000963680B48194430444A4606F049F94E4400E01F46A46814B90548BDE854
:203E6000F8833B46D8E72046BDE8F883E019002070120020C8130020044B054A1860054BE5
:203E800000201B689A615882FFF7B2BF70120020F13D0008E0190020064B1860064B002018
:203EA0001980064B1A60064B064A1B689A615882FFF724BB341400209A1200202C1400203C
:203EC000E0190020FD3400080346998800680022FFF76EBFF0B506461448B57A1C68006D0C
:203EE000776800EBC500124D400028580025C0F30900854217D257F815601FFA86FCF6B27C
:203F00000E550134B4FBF2F602FB16446E1C864209D24FEA1C260E550134B4FBF2F602FB47
:203F200016440235E5E71C60F0BD00BF005C00400C600040F8B5069F06463D6807985B1B9C
:203F4000B3FBF2F402FB1434002CB8BFA41844B903785BB2002B02DCFF23037032E0047080
:203F600027E001230370338970689C42A8BF1C460023A3421CDA11F805E00135B5FBF2FCA8
:203F800002FB1C5503F1010CA4455FFA8EFE02DBC0F800E00CE011F805C001354EEA0C2E0D
:203FA00040F804EBB5FBF2FE02FB1E550233E0E73D60B07AFFF7F6FBA3B20360B07A3021ED
:203FC000FFF76AFA2046F8BD11220123834205D2013A02D05B009BB2F8E77047002B18BF2C
:203FE00018467047022830B54FF0000314BF002502250C225A43084CA018A2583AB1C27945
:2040000002F00202AA4202D182798A4203D00133082BEED1002030BD4C150020044A00232C
:204020001360044A1360044BFF221A70704700BF48140020401400203C14002007B5074B6E
:20404000074A1B680092074A0749019207484FF48072FFF76FFF03B05DF804FB481400205B
:20406000401400203C1400204C140020A801002010B502F07F02212A044619469DF808004A
:2040800027D1012C19D0092C3FD1831E012B3CD8FFF7A8FF0446002837D0C379DB0702D4E2
:2040A000037A012B2FD02068A18804F1080289B2FFF7F2FE0123237223E0032825D1FFF7B4
:2040C00091FF034608B3027AFAB10068998889B214E0012A19D1032C0ED0062C15D12228E9
:2040E00004D10B4B1868FFF7C7FE0AE021280CD10848FFF7E9FE04E0074811460022FFF77B
:2041000057FE002010BD032010BD022010BD00BF44140020B801002038140020114B10B5E1
:204120000246044603F1180153F8040B8B4242F8040BF9D11B7813700B4BA2789B781344B6
:20414000A3700A4B227D9B7A13442375084B1868FFF746FE074B20741B68C0F30720607430
:20416000E38210BDE0EA00087C010020A801002044140020B401002002F07F02212A05D1F4
:204180000B2803D1024A0020136070470220704738140020431E402B034B28BF4020188143
:2041A000024B1860704700BFA8010020B4010020014B1860704700BF4414002010B5022885
:2041C00014BF0020022000230C225A43064901338C18E47904F00204844204BF00248C50D5
:2041E000082BF1D110BD00BF4C15002008B5054B002202201A60FFF7E1FFBDE8084003200C
:20420000FFF7DCBF3814002070B50C4629B31449144A0B6812680D469A1AD2B2C2F1FF0267
:20422000944201D9BAB11446002291B2A14202F1010205D2465C0C49CE540133DBB2F4E73F
:204240002B600A4B1A781206FBD51B781B0604D5FFF7F4FE01E0104670BD204670BD00BFD9
:2042600048140020401400204C1400203C140020A0F8411000F044BB026C6FF31722026417
:2042800000F03EBB90F84D300BB900F039BB70470123013903FA01F1D0F841300AB10B4342
:2042A00001E023EA0103C0F84130FFF7EBBF40F2FF32914228BF114690F8452010B502F02B
:2042C0000F0201F00F0442EA041280F8452090F84620C1F3051122F03F02114380F846107D
:2042E000BDE81040FFF7CEBF10B540F2FF32914228BF114690F8462001F0030402F03F02F4
:2043000042EA8412C1F3870180F8462080F84710BDE81040FFF7B6BF10B50021044606223A
:204320004B3005F055FF002384F8493004F10800BDE8104000F0E4BA38B503680446DB683C
:204340000D46984728B1236820461B6929469847012038BD0023137090F8613073B190F80E
:204360006030002B18BF013090F851309B0705D5A1F16103192B18D82039C9B2080608D40D
:204380000D4B585C030616D50223137000F07F007047872902D97831C8B27047012380390D
:2043A00003FA01F1002011707047A1F14103192BE4D82031E1E770471CEB000813B50DF13B
:2043C00007020446FFF7C6FF18B99DF80700B0B921E00023E21892F84B2082420FD001330F
:2043E000062BF7D10023E21892F84B1011B982F84B0004E00133062BF5D100200BE094F88D
:2044000049309DF8072004F10800134384F8493000F076FA012002B010BD13B50DF1070250
:204420000446FFF797FF68B10023E21892F84B10814203D1002382F84B3006E00133062B91
:20444000F3D102E09DF8070060B194F849309DF8072004F1080023EA020384F8493000F054
:204460004FFA012002B010BD38B50025044680F8435080F8445080F8455080F8401080F893
:20448000421000F03DFA84F8405084F8425084F8435084F8445084F845502046BDE83840D6
:2044A00000F02EBA30B590F8405080F8431080F8425080F8442080F84530BDE8304000F084
:2044C0001FBA90F840208A420CD0002280F8401080F8421080F8432080F8442080F845202B
:2044E00000F00EBA704790F840301943FFF7E9BF90F8403023EA0101FFF7E3BF0022026038
:204500004260826080F874208281C28102677047016070474160704781607047F7B590F869
:20452000745004460DBB06462F46236F9F4205D2B36ABBB1B06D9847A0B916E0A368A08992
:20454000E189009394E80C00FFF78CFB04F11000216FFFF75DFA40B10125FFF7B9FB84F83A
:20456000745002E001370436DFE7284603B0F0BD00230367704770B5056F0024AC420AD0C6
:2045800005F1160650F82660964207D100EB840636698E4202D1052C02D90DE00134EDE7D2
:2045A00000EB8406B362049BAC4231613364B26504D30135056701E0002070BD012070BDAF
:2045C0000148FFF79BBF00BFAC15002010B5084904460120FEF7A0FE06490220FEF79CFE8E
:2045E0006069FEF77DFEA069FEF786FE012010BD8946000839460008FEF7D0BE07B5012153
:204600000DF10700FEF7D6FE01280CBF9DF807004FF0FF3003B05DF804FB07B501210DF1EB
:204620000700FEF7E3FE10B19DF8070001E04FF0FF3003B05DF804FB10B50B78222B20D164
:20464000104CFEF71BFF2378032B0DD8DFE803F00702070700280CBF0223012303E0002829
:204660000CBF032301232370FEF710FFB0F5966F07D12378022B04D100200A2100F082FDB5
:20468000FEE710BD241600201D4B73B51A78022A34D103221A70FEF781FE03282ED9FEF771
:2046A0007DFE0422011F01A8FEF7CAFE9DF80430312B23D19DF80530452B1FD19DF80630C5
:2046C000412B1BD19DF80730462B17D10D4C4FF0C2466FF0060544F001040B4B184685469B
:2046E0004FF001002146324604B402B401B401B401B401B401B401B4AE46704702B070BD65
:20470000241600200D47000800080020024B18460138FDD800F072BDFF340C0007B50023C5
:20472000024600930349044B0448FFF724FF03B05DF804FB30000020CD450008AC1500204C
:2047400070B50E4615460024AC4205D23019291BFEF74CFE0444F7E7204670BD13B5044605
:20476000FEF71CFE30B120460DF107010122FFF7E7FFF5E702B010BD08B5064B1B681B7B5C
:20478000052B05D1FEF77AFE003018BF012008BD002008BD3806002070B50E461546FFF7AC
:2047A000EBFF48B146B10024AC4205D23019291BFEF7C0FD0444F7E7002070BD07B502AB1B
:2047C00003F8011D19460122FFF7E6FF002003B05DF804FB38B5054608460C4605F07EFDF4
:2047E000214602462846FFF7D7FF002038BD10B504464068FFF7CEFC2269A3693AB9802218
:2048000013E05A791A710AB119680A709B6B002BF7D104F10C0010E0997949B1597919713F
:20482000197909B1186801709B6B002BF4D103E0511C1A71CAB2F3E7A068FFF7B9FC012040
:2048400010BD000007B50023024600930349044B0448FFF790FE03B05DF804FB7C010020C2
:20486000EF470008AC1500200AB9037843B300238B63836923B9816106E09A6B1AB113461B
:204880008B42FAD11CE0996382681AB901F11403836006E093680BB11A46FBE701F11403F7
:2048A000936001F120029A6001F12C038B62002381F8343081F8353081F8363081F837304C
:2048C000704700002DE9F041457804460E46174698468DB90948FFF74BFEC4F80C8027619E
:2048E00065612046FFF7AEFF3046FFF717FFBDE8F0410248FFF712BEBDE8F081AC1500208A
:2049000038B50489056834B128462146FFF77CFC241A0544F7E720462146BDE83840FFF743
:2049200073BC0346F0B5DD6800200A4698615861586218621863D86255B398791E8A4FF00A
:20494000FF34A8B9B04211D2611C11D12F5C852F04D1441CB44228BF4FF0FF3407F00307CB
:20496000032F16BF01300530C019EBE70121997199799D6109B15E610AE0191D596201216D
:204980005C6119626118E4430D4426441D63DE62D86B1946BDE8F040FFF766BFF8B5069EE1
:2049A00004469DF81C509DF82070C16322B11168C1605168016101E0C260028225B9013342
:2049C0002360731E238101E02360268120680021228905F0FDFB65712EB125B11FB92368E5
:2049E0001D70A77101E00123A37120460021FFF798FF2046F8BD000013B5114C0322D4F8B4
:204A0000C00094F8CC1000F073FB94F8CC204FF4803101FA02F2D4F8C00003681A61002320
:204A20000193019BB3F5007F02D2019B0133F7E794F8CC10042200F05BFB02B010BD00BF8B
:204A4000E8EB000801498D460149084700500020554A000808B5124B124A1968914201D013
:204A6000002301E0104B07E01048D4188442F9D2C858D0500433F7E70D4A934203D20022A3
:204A800043F8042BF8E705F059F800200146024601F0EAFF074B0BB105F040F8FEE700BF1F
:204AA00024F2000800000020500F0020500F0020F01900201D9B000808B50D4B1A680AB977
:204AC0000C4A1A601B680C4AD21A824204DB09494242591A914206DA05F01AF80C23036009
:204AE0004FF0FF3008BD024A18441060184608BD28160020F0190020D0370128FEE701F0BB
:204B0000BBBF00000B4B10B5196809220A230A4801F03CFF094B022219680948032301F048
:204B200035FFBDE81040074B074819681A221B2301F02CBF700400202C1600207404002046
:204B400044160020780400205C16002010B5044600F07EF9034B20461978BDE8104000F00D
:204B600013B900BFB4020020F8B50446056800F07FFC22680023510101F184410B60802143
:204B800029600121A9622B61EB606379696113B18B4203D02BE04FF400436B644FF6FF7367
:204BA000D36200256E1CF7B22046394600F06AFCD0B1236848F6FF7103F1340242F82510DA
:204BC00018336D1017F0010F53F8252014BF6FF0FF016FF47F4101EA020214BF68214FF483
:204BE000D0410A4343F82520042E3546DAD1216801224B01490103F1844301F18441C3F810
:204C000080220A60F8BD000038B5274B274C1A68012042F010021A6000F048FA0025002029
:204C200000F010FB65602368182023F40023236000F015FB102000F012FB00F043F8A560D7
:204C4000102000F0FFFA102000F017FB0028FAD000F039F8164800F01DFB182000F0F2FA7C
:204C6000182000F00AFB0028FAD0022000F0DAFA0021104800F0AAFA4BF67F3000F070FBD7
:204C800000F039F80C4B188800F0D0F80B4800F0D1F80B4800F0D8FBFFF7AEFE00F02DF86B
:204CA000FFF72DFF38BD00BF0020024000100240B802002000200008B60200204D4B0008F0
:204CC000694B0008704708B50020014600F020FB01204FF4806100F01BFB0021022000F0B4
:204CE00017FB2D2000F024FBBDE8084003204FF4800100F00DBB00F0E3B900F021BA000063
:204D0000012007E0022005E0032003E0042001E00520FFE70D4A0121116072B60C4A0021E5
:204D20001160074902B4084902B486B005498E46704700BFAFF30080AFF30080AFF30080C1
:204D400000000061F9FFFFFFB568000814ED00E010E000E0AFF30080AFF30080AFF30080C0
:204D6000FEE710B50446007900F0A0FA2079BDE8104000F0B3BA03689A6822F4602242F416
:204D80008012114399607047002370B51A461C46072B4FEA430503DCEE1801FA06F634436D
:204DA0001D4401FA05F501330A2B42EA0502EFD10368DC601A6170BD38B5124D2A68136899
:204DC0001C68A10706D5196821F002011960936803B19847620708D52B681A681B691168D8
:204DE00021F00401116003B19847E30708D52B681A68DB68116821F00101116003B19847EA
:204E000038BD00BFE4020020036801225B0103F1844303F58673191F1A6018680028FCD11B
:204E200043F8042C0B68002BFCD170470146042000F06EBA044B10B504461868A047034B4F
:204E40001868A04710BD00BFE4020020E002002010B50446FFF785FF20464FF46021FFF7AE
:204E60008AFF2368012103F1404308335A015B0102F1844203F18443116520461960BDE825
:204E80001040FFF7C1BF38B550F8313004464D1E03B19847AA00012101FA02F223685A606E
:204EA00038BD0000024B01211868FFF7ECBF00BF28030020024B02211868FFF7E4BF00BF1B
:204EC00028030020024B03211868FFF7DCBF00BF28030020024B04211868FFF7D4BF00BFC1
:204EE00028030020024B05211868FFF7CCBF00BF28030020024B06211868FFF7C4BF00BFBD
:204F000028030020024B07211868FFF7BCBF00BF2803002038B50446274D9DF8100045F849
:204F20003420012805EBC4056B6004F5022512D00AD3022814D1AB0003F184430122C3F83E
:204F40000021C3F880210BE0AB0003F184430122C3F8002104E0AB0003F18443C3F88001FE
:204F60002046AD0000F096F805F1844501232B600F2C1FD8DFE804F0080A0C0F12151515C7
:204F800015151A1A1A1A1A1A40220CE080220AE04FF4807207E04FF4007204E04FF4806297
:204FA00001E04FF40002054B1A6038BD034B4FF480725A6038BD00BF7416002000E100E0B0
:204FC00007B500930023FFF7A5FF03B05DF804FB01F0030189000F238B408A4010B5046848
:204FE00024EA03031343036010BD0000084A10B552F83030044653B102EBC00250689847C2
:20500000012303FA04F4034B5C6100BF00BF10BD7416002000040140104B2DE9F047104D2D
:20502000D3F8149004468A4605EBC0050026984654450CD80127A74017EA090F04D02B6822
:2050400013B1686898473E4301340835F0E7C8F8146000BF00BFBDE8F08700BF0004014041
:20506000741600200020FFF7C1BF0120FFF7BEBF0220FFF7BBBF0320FFF7B8BF0420FFF720
:20508000B5BF05200921FFF7C7BF0A200F21FFF7C3BF000003460A4600F0FC0102480844E3
:2050A0001946FFF795BF00BF08000140034B1A6822F0070210431860704700BF00200240B1
:2050C00008B5074801F011FE064801F00EFE064801F00BFEBDE80840044801F006BE00BF84
:2050E0002C030020340300203C0300204403002070B501F00704A4000F25A5400368C8082B
:2051000053F82060092A26EA050514BF1646082606FA04F4082A44EA050443F8204006D147
:20512000012000FA01F1DA6822EA010106E0092A05D1012000FA01F1DA681143D96070BD1A
:2051400008B5032000F0B2F8BDE80840032000F0C5B80000014801F0D9BD00BF4C0300205A
:20516000014801F0D3BD00BF84030020014801F0B9BF00BF4C030020014801F0B3BF00BFB4
:2051800084030020064B45F255521A604CF6CC42586099601A604AF6AA221A60704700BF48
:2051A0000030004000284FEA011105DA064B00F00F00C9B21954704700F16040C9B200F53D
:2051C000614080F80013704714ED00E021F0604138B521F07F01084B0843986000241D46BE
:2051E00060B20F210134FFF7DDFF2B2CF8D1F02385F8233038BD00BF00ED00E0044A054B44
:20520000D16801F4E0610B43D360BFF34F8FFEE700ED00E00400FA05014B13F8100070473B
:2052200000EF0008064B5A6822F0030202435A6080005A6802F00C028242FAD1704700BF07
:2052400000100240030A0121C0B201FA00F003F1804303F504331A68104318607047030A79
:205260000121C0B201FA00F003F1804303F504331A6822EA000018607047030A0222C0B269
:2052800002FA00F003F1804303F504331B68184070470000044B05C85968126821F47411B9
:2052A00002430A435A6070470010024010B50446FFF7B2FF074B53F82020074B03EB44047E
:2052C000637803EBC2039B0003F1844301221A6010BD00BFBC03002000EF000810B50446DC
:2052E000FFF79AFF084B53F82020084B03EB4404637803EBC2039B0003F1844301221A6037
:2053000000221A6010BD00BFC803002000EF000810B5054B054C5A6854F8200022EA0002E1
:205320001143596010BD00BF001002405CEF000810B50446FFF770FF074B53F82020074B8C
:2053400003EB4404637803EBC2039B0003F1844300221A6010BD00BFD003002000EF000821
:20536000024B072258601A60704700BF10E000E008B5044B1A6801321A60034B1B6803B17F
:20538000984708BDA8190020F416002011F0010F70B542EA03030CBF0825002503FA05F5E2
:2053A000006801F1FF3400F11800C4F3400450F8241014BF6FF0FF066FF47F4631402943A4
:2053C00040F8241070BDF8B507680546FB683E691E4016F0400403D0046A0CB1A0474024D2
:2053E000F30604D5AB6913B1984744F01004300704D56B6913B1984744F00804710704D5C4
:205400002B6913B1984744F00404B20704D5EB6813B1984744F00204F30704D5AB6813B1AD
:20542000984744F00104E4433C61F8BD0368013903F140432033DB0003EB8101890001F1A6
:20544000844101230B60704710B504460448A0470448A0470448A0470448A04710BD00BFDA
:20546000240400204C040020DC0300200004002010B504460079FFF719FF2079BDE810402D
:20548000FFF72CBF03791E2B10D9212B0ED0202B0ED9222B01D0252B04D102298CBF002048
:2054A000012070474B1E58425841704701207047002070470368002203F140430C3301EBE3
:2054C000C3039B0003F1844302311A6040F82120704738B505460C4613460022FFF756FF83
:2054E00028462146BDE83840FFF7A0BF38B543790446022B0D463ED0042A3CD8DFE802F0E9
:205500000312202A3600FFF7D5FF2368013D03F140432033DB0003EB85039B0003F18443F2
:20552000002221E00368002203F140430C3301EBC3039B0003F184431A606022082301E0F5
:2055400010220023FFF722FF20462946BDE83840FFF76CBF03684FF2F1129A6103229A6003
:205560005B0103F1844301221A6038BD0122BDE83840FFF7AEBF38BD10B5074B1C68E16806
:2055800022690A40120605D55B6A1BB198476FF08003236110BD00BF2404002010B5074B83
:2055A0001C68E16822690A40D20705D59B681BB198476FF00103236110BD00BF240400202D
:2055C000F8B50B4F3D68EB682E691E4016F0400403D03C6A0CB1A0474024B30604D5FB6916
:2055E00013B1984744F02004E4432C61F8BD00BF24040020F8B5124E3768FB683D691D402E
:2056000015F0100403D0B4690CB1A0471024290704D5736913B1984744F008046A0704D597
:20562000336913B1984744F00404AB0704D5F36813B1984744F00204E4433C61F8BD00BFF4
:20564000240400200148FFF7BEBE00BF4C0400200148FFF7B8BE00BFDC0300200148FFF766
:20566000B2BE00BF00040020D36870B59B0638D513689E0635D513689D0702D41368DC074D
:2056800001D553682DE05568C4888388A4B201349BB29C42EDB2046808D0C6880389B6B27D
:2056A0009BB29E420FD183889BB263B983889BB2E35C86880389B6B29BB29E4235D0838893
:2056C00001339BB28380C3889BB2E554C4880389A4B29BB29C4217BFC388002301339BB257
:2056E000C380D368180622D513681B061FD58888CB8880B29BB2984212D088880B6880B234
:20570000185C8C880B89A4B29BB29C4218BF8B88C0B21ABF01339BB200238B80506070BD2B
:20572000D36823F08003D36070BD0023CAE770BD02480349034AFFF797BF00BF041700200E
:20574000F81600200038014002480349034AFFF78BBF00BF10170020281700200044004096
:2057600002480349034AFFF77FBF00BF1C1700203417002000480040294B072818BF18700B
:205780001A78052A49D8DFE802F003131E222A35244A4FF6FB71106C014011644FF43F41A5
:2057A000116406221A70204B1B685A7B1A7370471C4A4FF6FB71106C014011644FF43F41AF
:2057C000116404222AE002225A70032226E05A78013AD2B25A705B780BBB04221BE0114A9B
:2057E000116C89B241F01001116405221A700A225A7070475A78013AD2B25A705B7873B982
:20580000084A4FF6EF73116C0B401364064B1B685A7B1A730622024B00E006221A7070475C
:20582000B0190020005C00403806002070B50446807B0D461646FFF739FD084A084B094949
:205840001A60094B09480B600949656008600221A6601B681172984770BD00BFC01900204C
:20586000E0190020B819002054060020A4060020DC190020F8B56C4D6C4B2A685C6C1268D4
:20588000A4B202F48062224206D06FF480625A64674B1B685B6898472B681B6823409F04AA
:2058A00003D5624A6FF400515164DE0406D55F4B6FF4C0525A640020FFF75EFF2A681168E3
:2058C000214008050FD5594B186C80B240F0080640F00C001E641864107B507303201073B0
:2058E0006FF4C0525A648B0503D5504B6FF400725A64CF0506D54D4B6FF480725A6407205E
:20590000FFF73AFF2B681B6803F40043234200F08980464B5A6C110440F184806FF4004165
:2059200012F00F06596458D1196848F6800008400028EED088B23F4C00F4405525803E4D7F
:2059400000F0300028801868D60620F4804020F0700040F4004040F0800080F4005018606F
:20596000186820F4E04020F0400040F4004040F0800080F02000186001D5080607D51968B6
:2059800048F60F720A401A6000F08EFE0BE0186840F68F7202401A600A0502D500F09CFC3C
:2059A00001E000F001FE214B22881968288821F4804121F0700141F4004141F080015140BF
:2059C00019601A6822F4E04222F0400242F4004242F0800242401A60F8BDB40004F18044F6
:2059E00004F5B84427683B040CD5226840F68F7313402A682360926806F18043013B52F89F
:205A000023309847380684D5226848F60F73134023602B6806F180465B68013E53F82630AA
:205A2000984776E7F8BD00BF38060020005C0040B8190020AC190020AE190020800000F18E
:205A4000804000F5B840036823F4804323F0700343F4004343F080035940016070470000ED
:205A600018B9034B07221B681A820248704700BFE01900209C06002037B5114B1A681D46F7
:205A8000127802F07F02212A01D0022016E0A0F12003012B0B4B0C4C1B6888BF002423B185
:205AA00002A901F8010D02209847002CEDD02B68002528469C615D82A047284603B030BD53
:205AC000E019002050190020615A000813B5104B1B681A7802F07F02212A14D1022806D086
:205AE000222806D19A780B4B02F003021A70002400E00224084B1B6833B102A901F8010D06
:205B00000220984700E00224204602B010BD00BFE0190020401700205019002021B90228BD
:205B200034BF00200220704702207047044B1B689B7A1BB1034B05221B681A73704700BFF2
:205B4000E019002038060020024B04221B681A73704700BF38060020054B1B689B78032B63
:205B600004D8044901EBC30100F088BB00207047E019002084060020014900F07FBB00BF4C
:205B80004C060020014900F079BB00BFC80600200C4B00221B6801219A720B4B4FF4E05085
:205BA00019640A4909681A645A6418644FF43F405A6408601864064B4FF4801018600A736F
:205BC000704700BFE0190020005C00403806002000E100E02049214B0A681B6870B59B1AD7
:205BE00013F0FF030E461E4905D10A78013AD2B20A70FAB170BD0120087000211948402BF6
:205C000028BF40230C46184D11F0010FAD5C01F10101EDB21CBF44EA0525056002F1010248
:205C20000CBF2C4604309942D2B2ECD3D90748BF046032600D4A0E49106D40000B50536877
:205C400023F4E04323F0400343F4004343F0800383F03003536070BD5819002044180020F1
:205C6000481900208061004041170020005C0040146000402DE9F843494B4A4C1B68002597
:205C80004FF0C0089D7283F809802565236848F68F16334043F400732360236848F2800706
:205CA00023F4E04323F040033B4383F010032360226D3D4B52004FF0400943F80290236D7F
:205CC00080225B0003F1804303F5C0431A602368284623F4E24323F070031B041B0C236017
:205CE000324B1B6893F82C1000F0E6F828464FF44051FFF7A3FEA3680220334043F4C0633C
:205D0000A360226D2A4B520013444FF480721A60A368294623F4E04323F040033B4383F029
:205D20002003A360FFF78AFEE36803203340E360226D204B520013444FF488721A604946B2
:205D400000F0BAF803204FF44051FFF777FE636801201E406660226D174B520043F802802F
:205D60006368294623F4E04323F040033B4383F020036360FFF762FE104B01221B682846BD
:205D80001A7300F075FC0E4BFF221D600D4B1D600D4B1D600D4B1D600D4B1A70BDE8F8839D
:205DA000E0190020005C004008600040B819002020600040386000401060004038060020EF
:205DC000541900204C19002044180020581900204819002070B50C4611B31249124A0B68BE
:205DE00012680D469A1AD2B2C2F1FF02944201D9A2B11446002291B2A14202F1010205D278
:205E0000465C0A49CE540133DBB2F4E72B60084B1B781B0604D5FFF7DDFE01E0104670BD2F
:205E2000204670BD44180020581900204117002048190020034B1868034B1B68C01AC0B2DE
:205E4000704700BF541900204C1900200A4B10B51A680A4B1B689B1ADBB2994228BF1946E3
:205E600000238B4206D0064CA45C0132C454D2B20133F6E7184610BD4C19002054190020ED
:205E80004818002010B5FFF7E1FF094A044613680344DBB21360074A1268D31ADBB2402BD8
:205EA00004D803204FF44051FFF7C8FD204610BD4C19002054190020104B3E291B6D03EBD7
:205EC000C0000F4B4FEA400003440ED94A09C80608BF02F1FF32C1F3090108BF92B241F4F7
:205EE000004141EA82221A6070474A08C80748BF013241EA82211960704700BF005C0040AD
:205F00000C60004010B5064C18B9236801221A8210BD044B1B681B68984720680A3010BD13
:205F2000E0190020DC19002010B5064C18B9236801221A8210BD044B1B689B6898472068F8
:205F40000C3010BDE0190020DC19002010B5204B18B91B6802221A8210BD1E4A19680020F0
:205F600010800C78134614F07F040DD14A7A910644BF0221197012F0400F1A7814BF22F07D
:205F8000010242F0010214E0012C1FD0022C1ED1097901F00F02920002F1804202F5B842E0
:205FA00011F0800F126806D002F03002102A07D101221A7004E002F44052B2F5805FF6E74F
:205FC000054B1B681B699847024810BD104610BDE0190020B2190020DC190020234A2DE9B5
:205FE000F84314689046238A267A214FA3B9042E12D120490A78012A0AD11F4A10681F4AAB
:2060000080B202445200136030223A800B7027E010233B80072623E0A58AAB428CBF022608
:2060200004269D4228BF1D462846A36998478146002000F0CFFB2A460146484600F063FB80
:206040002946002000F0E2FB238A4FF440525B1B2382638A1D4430233B80094B65821A8016
:20606000D8F800301E72BDE8F88300BFE0190020AE1900205C190020505C004002300020DE
:20608000AC19002010B50A4B0A491B6849789A7891420AD3D97841B99C8834B99A72064BEF
:2060A0001B685B689847204610BD022010BD00BFE0190020D0060020DC19002038B50E4A71
:2060C0000E4C12682368926918799978904723689A7A7AB170B95A7962B9DD7855B9084B56
:2060E0001B68DB689847236828461A79DA729A781A7338BD022038BDB8190020E01900206E
:20610000DC19002038B52F4B1B68187810F07F0004D15A7A22F020025A7238BD02284ED18A
:206120005A88002A4CD15A79002A49D11A79264D22F08000840004F1804101F5B8410968ED
:206140002D7812F0800F14BF01F0300101F44051A84234D2002932D09B7A83B304F180446F
:2061600004F5B844120623680CD503F03003102B1FD1C4B2204600F01CFB2046302100F0CB
:20618000F3FA16E003F44053B3F5805F11D128B90E4B93F82C1000F047FB01E000F0F9FA32
:2061A000236823F4804323F070039BB283F440532360074B1B685B699847002038BD02206B
:2061C00038BD00BFE0190020D006002054060020DC19002038B51D4B1D4D19682D780A7905
:2061E00022F08004A30003F1804000F5B840006812F0800F14BF00F0300000F44050AC4267
:2062000022D24C8804BBF8B1897AE9B103F1804303F5B84312F0800F1A6807D022F4E042E5
:2062200022F0400292B282F0100206E022F4804222F0700292B282F480521A60054B1B6827
:206240009B699847002038BD022038BDE0190020D0060020DC19002008B5064B1B685A7AA6
:2062600042F020025A72044B1B68DB699847002008BD00BFE0190020DC190020054B1A6865
:20628000538A18B98988CB1A1382704708681844704700BFE019002008B50B4B002093F8F5
:2062A0002C1000F0C1FA094B1B68187A082806D1074B4FF480521A80064B10221A80B0F1C8
:2062C00009035842584108BD54060020E0190020AC190020AE19002073B5934E934B3268DA
:2062E000934D92B213445B001A682B68197A09290FD092B2520002F1804202F5C042117842
:2063000019705178597091885980118999809289DA8001221A72DA885C78002A61D11A7875
:2063200012F07F023AD1092C02D1FFF7ABFE44E0052C0FD193F90220002A01DA08234DE0E8
:20634000DA78002AFAD19A88002AF7D19B7A002B37D0F3E7032C13D19A78012A07D0754BDA
:2063600020461B685B699847032828D135E09A88002AF4D15B7A9806F1D5FFF76DFF1CE0B0
:20638000012CECD19A78012AE9D19A88002AE6D15B7A9906E3D5FFF7B5FE0EE0012A04D156
:2063A0000B2CDCD1FFF78AFE07E0022AD7D1012CF1D0032CD3D1FFF70DFF10B1CFE700285E
:2063C000BCD132685C4B92B213445B0000221A605A4B30221A80062300E009232A68137280
:2063E000CEE0062C13D11A78520677D1DA78514B012A02D11B68DB6967E0022A02D11B682B
:206400001B6A62E0032A69D11B685B6A5DE0002C3CD15988002961D15A6822F0FF02B2F5D8
:20642000003F5BD11A7812F07F0204D19B88002B00F0AA8052E0012A0CD13E4A18791268D2
:2064400092699047002849D12B689B7A002B40F09B8043E0022A41D11B79394803F00F0191
:206460008A0002F1804202F5B8421268007813F0800F14BF02F0300202F4405281422DD227
:2064800013F0700F2AD1002A7ED127E0082C03D11B785B067AD021E00A2C1FD11A7802F00E
:2064A0007F02012A1AD19A7AC2B15988B1B95A6822F0FF02B2F5803F10D11E4A18791268E4
:2064C00092699047002863D008E03BB12A680024548293612046984720460AE0154B1A68C4
:2064E0002B68126958789047032802D1104B1B6805E02B684FF6FF711A8A8A4201D1092271
:2065000003E0022800D012B908221A7238E093F9001000292EDAD98801910198824205489B
:2065200010D9019A1A821EE0505C004004300020E0190020B819002002300020AE190020BA
:20654000D00600208A420ED2016891F82C108A4201D2002105E092FBF1F401FB142212B957
:2065600001210C4A1170026892F82C209A82FFF735FD05E003221A72074B4FF440521A8047
:20658000FFF78AFE02B070BD044B9FE7044B9DE7044B9BE75C190020AC1900204D5F0008F7
:2065A000055F0008295F0008F8B52B4D2C68237A032B01D0052B41D1A369228AABB1A2B1E1
:2065C000A68A964228BF164630469847238A07469B1B2382638A00203344638200F008F96C
:2065E00032460146384600F0A6F8238A53B11B4B00204FF4405201461A8000F007F9184B90
:2066000030221A80238AA28A9A4202D82B68032202E01BB12B6805221A720CE02A680621AE
:206620001172104A1168104A89B20A44520013600B4B30221A802B681B7A06E0072B03D106
:206640000A4B1B68DB68984708232A681372BDE8F840FFF721BE00BFE0190020AC1900208F
:20666000AE190020505C004002300020B819002030B50B4B1C780023A3420CD203F1805289
:2066800002F5B85291000D6848F68F722A401A430A600133F0E7034B40F08000186030BD15
:2066A000D00600204C5C004010B5134C23681A7A022A01D0042A04D1FFF790FC23681B7A17
:2066C00013E0062A10D15A78052A09D11A78520606D19878FFF7CCFF084B1B681B6A98470F
:2066E000074B1B689B689847082322681372BDE81040FFF7D1BD00BFE0190020DC19002043
:20670000B8190020704730B501F10051013201F54051521049000023934200F1020009D080
:2067200010F8015C10F8024C44EA052421F823400133F1E730BD01F1005101F540514900BF
:206740005308F0B51C460E46054634B156F8047B013C25F8027BA4B2F7E7D20744BF11F896
:20676000232000F81320F0BD800000F1804000F5B8400368CA0623F4E04323F040039BB2C8
:2067800048BF83F010038A0648BF83F0200303607047800000F1804000F5B84003685B043D
:2067A00006D5026848F68F73134043F4804303607047800000F1804000F5B84003685B0603
:2067C00006D5026848F68F73134043F04003036070470000054B1B689BB203EBC00000F192
:2067E000005000F54050400000887047505C0040044B1B689BB203EBC000034B03445B009C
:2068000018887047505C004004300020044B1B689BB203EBC000034B03445B0019607047F4
:20682000505C0040023000200D4B3E291B689BB203EBC0000B4B03444FEA430209D94B098C
:20684000C80604BF03F1FF339BB29B0243F4004304E04B08C90748BF01339B021360704714
:20686000505C00400630002008B5114B01211C6803222046FEF73CFC002301211A469342E5
:20688000206834BF02254FF40035B2F5007F056103F1010303D0002A08BF012101E04FF054
:2068A000FF31B3F5007F04BF52180023E7E700BFFCEE000808B5034B0BB1AFF3008062B6B1
:2068C000FFF7D2FF00000000C288838892B29BB2C188D31A828889B292B2914203D2028919
:2068E00092B20132134498B2704710B5036904465868FFF7E9FF90B123695B6899881A687D
:2069000089B2505C99881A8989B292B2914217BF9A880022013292B2C0B29A8010BD4FF051
